:10000000F1C115C214C213C212C2CBC910C20FC2B1
:100010000EC20DC20CC20BC251C309C208C20000FD
:1000200000000000000000000000000000000000D0
:1000300000000000000000000000000000000000C0
:100040000000000080808000000000000000000030
:1000500000000040E37F3F000000000000000000BF
:100060000000000000000000000000000000000090
:1000700000E0E0E0E0E0E0E0E0E0000000000000A0
:100080000000000000000000000000000000000070
:100090000000000000000000000000000000000060
:1000A0000000000000000000000000000000000050
:1000B0000000000000000000000000000000000040
:1000C0000000000000000000000000000000000030
:1000D00000000000E0E0E000000000000000000080
:1000E00000000000000080F8F87800000000000028
:1000F0000000000080F8FF7F070000000000000003
:10010000000080F8FF7F07000000000000000000F2
:1001100080F8FF7F070000000000000000000000E2
:10012000C0E0F07838383878F0E0C0000000F8FF20
:10013000FF070000000000000007FFFFF800FFFFBE
:10014000FF000000000000000000FFFFFF00000FA4
:100150001F3F78F0E0E0E0F0783F1F07000000006C
:100160000000000080C0F0F8F8000000000000006F
:10017000381C0E0F0703FFFFFF0000000000000007
:10018000000000000000FFFFFF0000000000000072
:10019000000000000000FFFFFF000000000000C0A2
:1001A000E0F070783838383878F0E0C000000E0F92
:1001B0000F0100000000000000C1FFFF3F00000031
:1001C000000080C0E0F0783E1F0F03010000E0F85F
:1001D000FEFFEFE7E1E0E0E0E0E0E0E0E00000C0AB
:1001E000E0F0783838383878F0E0C0800000030359
:1001F00003000000808080C0E0FF7F1F000000003F
:100200000000000003030303071FFEFCF000071FAC
:100210003F7C70E0E0E0E0F0707C3F1F03000000F6
:10022000000000000000C0F0F8F8F8000000000036
:100230000080E0F07C3F0F03FFFFFF000000E0F8CC
:10024000FEDFC7C1C0C0C0C0FFFFFFC0C0C001010A
:100250000101010101010101FFFFFF010101008016
:10026000F8F8783838383838383838380000C0FF6F
:10027000FFFFE070707070F0E0E0C08000000303EA
:1002800003010000000000000103FFFFFC00071F46
:100290003F7C70E0E0E0E0F0787E1F0F010000009E
:1002A000C0E0F0703838383878F0E0C00000F0FF77
:1002B000FF83C0C0E0E0E0E0C0C083030300FFFFB5
:1002C000FF070101000000010107FFFFFC00000F14
:1002D0001F3E78F0E0E0E0F0787C3F0F0300383814
:1002E000383838383838383838B8F8F83800000036
:1002F0000000000000C0F0FC3F0F03000000000001
:100300000000C0F8FF3F07000000000000000000F0
:1003100000F8FFFF07000000000000000000008060
:10032000E0F0F07838383878F0F0C0800000001F36
:100330007FFFE0C0808080C0E0FF7F1F0000F0FCF6
:10034000FE1E070303030307071EFCF8F000071F48
:100350003F7C70F0E0E0E0E0707C3F1F070000C0F1
:10036000E0F0F07838383878F0E0C0800000FEFF28
:10037000FF030000000000000001FFFFF80000077D
:100380000F1F1C3C3838381C1C0FFFFF7F00061E57
:100390007E78F0E0E0E0E070783E1F0700000000AB
:1003A00000000000383838000000000000000000A5
:1003B000000000000000000000000000000000003D
:1003C00000000000E0E0E00000000000000000008D
:1003D0000000000000000000000000000000C8A1B4
:1003E0008D146D0311241FBECFE5D2E0DEBFCDBF5B
:1003F00010E0A0E6B0E0E8EDF7E102C005900D9254
:10040000A437B107D9F720E0A4E7B0E001C01D92FE
:10041000AE3EB207E1F711E0C2EFD1E003C0219791
:10042000FE01D2D9C13FD107D1F759D9D3C9E8CDFF
:1004300080EC90E096C1682F80EC90E06BD121E0D9
:10044000892B09F420E0822F08956CE380EC90E082
:100450005BD181E0089580EC90E055D1F6DFE8DFD4
:10046000882331F06AE070E080E090E017D8F6CFA2
:100470000895CF92DF92EF92FF9240E060E08CEB24
:1004800090E006D360917A0070917B0080917C00AF
:1004900090917D0024E6C22ED12CE12CF12CA701F5
:1004A000960176D9BA01A9012AE030E08CEB90E000
:1004B000C2D864E670E08CEB90E062D860917A007C
:1004C00070917B0080917C0090917D00A701960146
:1004D0005FD9AB01BC012AE030E08CEB90E0ABD8F7
:1004E0008CEB90E0D1D340E060E08CEB90E0D0D298
:1004F00060917600709177008091780090917900FA
:10050000A701960123D9BA01A9012AE030E08CEBBA
:1005100090E0D9D864E670E08CEB90E031D860913F
:100520007600709177008091780090917900A70112
:1005300096010CD9AB01BC012AE030E08CEB90E0D5
:10054000C2D88CEB90E0A0D38CEB90E0A4D38CEBE2
:1005500090E0A1D364E670E080E090E0FF90EF903F
:10056000DF90CF909BC767D760938600709387001A
:100570008093880090938900809174009091750019
:1005800061E0892B81F48AE890E0D8D360E08AE8C2
:1005900090E074D560937600709377008093780034
:1005A0009093790060E08AE890E01DD460937A002F
:1005B00070937B0080937C0090937D008091740009
:1005C000909175000196877099279093750080939C
:1005D00074004FDF64EF71E080E090E05FC70F933D
:1005E0001F9329D7609382007093830080938400C7
:1005F0009093850060937E0070937F0080938000CD
:100600009093810080EC90E07ED00EED13E024E02A
:1006100040E460E88CEB90E01AD264EF71E080E097
:1006200090E03CD766E670E08CEB90E02CD28CEB4F
:1006300090E028D38CEB90E027D366E48CEB90E03D
:1006400031D38CEB90E030D38AE890E006D58AE88D
:1006500090E074D360E08AE890E010D56093760073
:1006600070937700809378009093790060E08AE837
:1006700090E0B9D360937A0070937B0080937C0004
:1006800090937D00F6DE3798A89588E199E20FB641
:10069000F894A89581BD0FBE91BD81B5806481BDE0
:1006A000789485B7877E806185BF1F910F910895EB
:1006B0005ADF85B7806285BF889508951F920F9293
:1006C0000FB60F9211248F9381B5806481BD8F91F5
:1006D0000F900FBE0F901F9018950F931F9308E176
:1006E00012E02BE132E045E252E06BE272E08CEB8B
:1006F00090E064D120E046E760EC70E08AE890E0AA
:100700001F910F9192C44FC01092C300660F609367
:10071000C4000895E091C300E13150F4EF5FE0932D
:10072000C300F0E0EC53FF4F608381E090E0089558
:1007300090E080E00895CF93C62F6091C3006F5F73
:1007400084EC90E0DBD01092C300882329F0CC2306
:1007500029F0D7D0811102C0CF9130C080E0CF9175
:10076000089561E0E8CF1092C2004093C100660F87
:1007700061606093C40061E0640F84EC90E0BED0DF
:10078000882319F0BED0811101C018C080E00895FF
:10079000E091C200EF5FE093C200F0E0EC53FF4F46
:1007A000808190E00895C09AC29ABA9AB89A8FEF61
:1007B0008FB98AE28DB980EF8EB908958091D60005
:1007C00008958EB98BE200C000C000008DB9B29BC5
:1007D000FECF00C000C08DB9769BF5CF00C000C031
:1007E00000008FB19FEF9FB9B89A0895C29AC29B3B
:1007F000FECF00C000C00000C09800C000C0C2987A
:10080000C09A779905C083E08093D60080E0089570
:1008100081E00895AF92BF92CF92DF92EF92FF9264
:100820000F931F93CF93DF938C01E62E8091D60018
:1008300081608093D600F801908190FD03C08260B2
:100840008093D600D3DF882311F1FE2CE801BB246E
:10085000BA94AA24A3946E01FFEFCF1ADF0A809105
:10086000D6008370D9F1C29888818FB980EFA9DF53
:10087000B8988EEFA6DF9091D60080FF17C0892F21
:10088000817090FF0FC081E08093D60080E0DF91FF
:10089000CF911F910F91FF90EF90DF90CF90BF907D
:1008A000AF90089592E09093D600F1CF892F857094
:1008B000843059F4F801808181608083A092D60051
:1008C00095DF811118C09AE0EECF9E7F9093D600FD
:1008D000E601FA94F110BFCF81E0D9CFB89880EF4C
:1008E00070DF8883F1E0FF1204C0BFB88EEF69DFCC
:1008F000EFCF1FB8FBCFFE2CE801EBCF1092D60054
:1009000089CFC098C29AB29BFECF00C000C0C09AE7
:1009100000C000C000009EB1892F807295FD04C008
:1009200094E09093D600089581E00895E091D90075
:10093000F091DA000994E091D700F091D800099481
:10094000E091DB00F091DC00099580E4EFCFCF93DC
:10095000C82FECDF811105C0EEDFF2DF8C2FCF91C5
:10096000E5CFCF910895E091DB00F091DC0009958F
:1009700080E0DCCFCF93C82FF6DF8C2FD7DFCF916D
:10098000DACFCF93DF93D82FC62FEDDF8D2FCEDFB9
:100990008C2FCCDFDF91CF91CECF1F93CF93DF93FE
:1009A000182FD62FC42FDFDF812FC0DF8D2FBEDFA2
:1009B0008C2FBCDFDF91CF911F91BDCF0F931F9381
:1009C000DC0113961C921E921297E0E7F0E0ED9383
:1009D000FC937093DE006093DD005093DC00409345
:1009E000DB003093DA002093D9001093D8000093F5
:1009F000D7001F910F910895CF92DF92EF92FF924F
:100A00001F93CF93DF93E62E6A01E091DD00F09112
:100A1000DE000995A8DFF12CD0E0C0E0CE15DF059F
:100A200071F0F601EC0FFD1F1491812F7FDF811112
:100A300004C081DF98DF812F79DF2196EFCFDF912E
:100A4000CF911F91FF90EF90DF90CF9074CF0F93D5
:100A50001F93E42FA801A0E8B0E0A61BB109B5954B
:100A6000A795A093E4001092E30060936300F0E088
:100A700063E0F595E7956A95E1F7E0936200622FF0
:100A80001F910F91B9CF7093E2006093E100089538
:100A9000CF93DF93D62FC42F6091E4006D0F462FC4
:100AA0004F7062956F7060618091E3008C0F87706A
:100AB00090916100892B71DFD093E000C093DF003B
:100AC000DF91CF910895FC012091DF00260F209344
:100AD000DF0090916200A92FA61BBB0B2A171B06F3
:100AE00021F01CF0961B9093DF004091DF0060E046
:100AF000CF01CECF8F929F92BF92CF92DF92EF9293
:100B0000FF920F931F93CF93DF93E091E100F09159
:100B1000E200309749F06D3039F0D62F8C01C38157
:100B20006A3081F46C2FCFDF81E090E0DF91CF91CC
:100B30001F910F91FF90EF90DF90CF90BF909F900B
:100B40008F900895B2802091E0008091630090E042
:100B5000CB2CD12C8C199D092817190621F01CF0DB
:100B60006C2FC801B0DFE091E100F091E200248138
:100B70008C2F90E0B601C0D5BC014D2F421B550B08
:100B8000CA01BAD57C01DC2FDBDEC701282F2E1964
:100B90002B1588F44C015FEF851A950AE091E1006E
:100BA000F091E2000190F081E02DE80FF91F8491AF
:100BB000CEDEC401EBCFEC0CFD1CBDDE6091E0008D
:100BC000C13031F46B0D6093E000D150E9F6ACCF49
:100BD0004091DF004F5FD23018F0C80159DFF5CFE8
:100BE0004C1B6B0DFACF1F93CF93DF93D62F142F8F
:100BF000C0E0C11721F08D2FAADECF5FFACFDF91C1
:100C0000CF911F9108950F931F93CF93DF934423A8
:100C100091F0C42FD62F8C018091E000840F809337
:100C2000E0008EDE4C2F6D2FC801DDDFDF91CF910C
:100C30001F910F9180CEDF91CF911F910F91089559
:100C4000409163002091E000421BDDCF0F931F9382
:100C5000CF93DF938C01D62FC0E080916200C8173C
:100C600048F44C2F60E0C80113DF6D2FC801E8DFA6
:100C7000CF5FF3CF40E060E0C801DF91CF911F91DB
:100C80000F9106CF60E0E2CF8091610094E0892768
:100C90008093610008958091600090E2892780939D
:100CA000600068CE81E86DCE8FEA64CE1F93CF934B
:100CB000DF93EC01888199816BDD182F8881998100
:100CC00067DD20E0382FC901812BDF91CF911F9183
:100CD00008950F931F93CF93DF93EC01888199813F
:100CE00057DD182F8881998153DD082F88819981DC
:100CF0004FDD412F50E070E060E09CE0440F551F55
:100D0000661F771F9A95D1F710E030E020E0E4E00D
:100D1000000F111F221F331FEA95D1F7402B512BD3
:100D2000622B732B82958F708A019B01082BC9015E
:100D3000B801DF91CF911F910F910895CF93DF9369
:100D4000EC016A8188819981DFDC64EF8881998177
:100D5000E1DC65E288819981DDDC8881998101DDB2
:100D600068EC70E080E090E0DF91CF9197C3CF9383
:100D7000DF93EC016A8188819981C6DC60ED88810E
:100D80009981C8DC88819981ECDC41E06A818881A5
:100D90009981E9DC88819981FBDC8B836A81888178
:100DA0009981B2DC8B81803641F462EF8881998130
:100DB000B1DC61E088819981ADDC64EF8881998143
:100DC000A9DC65E288819981A5DC68E88881998140
:100DD000A1DC88819981C5DC68EC70E080E090E05E
:100DE000DF91CF915BC34F925F926F927F928F9210
:100DF0009F92AF92BF92CF92DF92EF92FF92CF93EA
:100E0000DF93EC01F62E6A81888199817DDCFF20D9
:100E100069F064EF888199817DDC61E28881998144
:100E200079DC68EC70E080E090E038D36AEF88818C
:100E3000998170DC8881998194DC43E06A818881A2
:100E4000998191DCCE0145DF4B015C014E805F80D2
:100E5000712C612C24E095958795779567952A9557
:100E6000D1F764197509860997099B01AC0155D41E
:100E70003CE095958795779567953A95D1F72A85C2
:100E80003B85032E000C440B550B47D46B017C01B2
:100E900043E0B594A794979487944A95D1F7440C6E
:100EA000551C661C771CC501B401641975098609B7
:100EB000970928853985032E000C440B550B2DD43A
:100EC000EBE09595879577956795EA95D1F7FEE0E4
:100ED000F594E794D794C794FA95D1F76C0D7D1DDE
:100EE0008E1D9F1D6EA77FA788AB99AB25E030E0D4
:100EF00040E050E012D460587F4F8F4F9F4F672FD4
:100F0000782F892F992787FD9A95DF91CF91FF90B0
:100F1000EF90DF90CF90BF90AF909F908F907F9099
:100F20006F905F904F900895EF92FF920F931F93F1
:100F3000CF93DF93EC014AE16A818881998113DCC8
:100F4000CE01B4DE9F838E83CE01B0DE9987888781
:100F5000CE01ACDE9B878A878E01025F1F4F7E0128
:100F600080E2E80EF11CCE01A1DEF801819391939D
:100F70008F01EE16FF06B9F78881998109DC888117
:100F8000998106DC99279BA38AA36A81888199812C
:100F9000BBDB61EE88819981BDDB88819981E1DBD2
:100FA00047E06A8188819981DEDBCE017FDE9DA3E7
:100FB0008CA388819981ECDB99279FA38EA38881DC
:100FC0009981E6DB8C0188819981E2DB7C0184E0F8
:100FD000000F111F8A95E1F7007F1F70C7018F7006
:100FE0009927082B192B19A708A788819981D0DB8D
:100FF00024E0880F991F2A95E1F7E2943FE0E3226D
:101000008E0D911D9BA78AA788819981C1DB082E2F
:10101000000C990B9DA78CA760E0CE01DF91CF91CA
:101020001F910F91FF90EF90DECECF93DF93EC01F5
:10103000798368834A83222369F0CB0164DB62E011
:1010400070E080E090E02AD2CE0191DECE01DF9107
:10105000CF916ACFDF91CF910895CF93DF93EC01C9
:101060008881998150DB62E070E080E090E016D2E8
:10107000CE017DDECE01DF91CF9156CF4F925F92B0
:101080006F927F928F929F92AF92BF92CF92DF9298
:10109000EF92FF92CF93DF9300D000D000D0CDB776
:1010A000DEB79E838D836623D9F0FC016281808147
:1010B00091812ADB64EFED81FE81808191812ADBC1
:1010C00065E2ED81FE818081918124DBED81FE81ED
:1010D0008081918146DB68EC70E080E090E0DED1B9
:1010E000ED81FE816281808191810EDB67EFED8170
:1010F000FE81808191810EDBED81FE818081918175
:1011000030DB43E0ED81FE816281808191812BDBC8
:101110008D819E81DEDD69837A838B839C83ED8163
:10112000FE81C6A4D7A4E0A8F1A8F594E794D794CB
:10113000C794FAEFDF1AE108F108C701B601A2E08F
:101140009595879577956795AA95D1F79B01AC0101
:10115000E4D22B013C01ED81FE8162897389072E67
:10116000000C880B990BA3019201BDE055954795A2
:1011700037952795BA95D1F7D0D24B015C0183E022
:10118000B594A794979487948A95D1F7ED81FE81C1
:1011900060897189072E000C880B990BA7019601B5
:1011A000BCD29595879577956795680D791D8A1DB1
:1011B0009B1D32E195958795779567953A95D1F77F
:1011C00070588F4F9F4FED81FE812685378550E007
:1011D00040E0A3D24B015C014FE0B594A7949794F3
:1011E00087944A95D1F760E070E0CB0181149104B7
:1011F000A104B10409F4B6C0C301B2012BE0959576
:101200008795779567952A95D1F7ED81FE81208D99
:10121000318D032E000C440B550B7FD22B013C016A
:10122000ED81FE8166897789072E000C880B990B6A
:10123000A701960172D2660F771F881F991F460E6D
:10124000571E681E791E42E0759467945794479420
:101250004A95D1F7ED81FE8184899589092E000C8C
:10126000AA0BBB0B77276627640D751D861D971D7E
:10127000ECE09595879577956795EA95D1F7298163
:101280003A814B815C81620F731F841F951F2BEC89
:1012900033EF4FEF5FEF41D2805B9C4397FD77C008
:1012A000660F771F881F991FA50194014FD249012E
:1012B0005A01C501B40123E0969587957795679506
:1012C0002A95D1F79B01AC0128D23DE096958795F0
:1012D000779567953A95D1F7ED81FE81268D378D0B
:1012E000032E000C440B550B18D26B017C014CE013
:1012F000F594E794D794C7944A95D1F7C501B40102
:1013000052E096958795779567955A95D1F7ED8137
:10131000FE81248D358D032E000C440B550BFDD121
:10132000EDE09595879577956795EA95D1F76C0DE2
:101330007D1D8E1D9F1DED81FE81C28CD38C0D2CD9
:10134000000CEE08FF086C0D7D1D8E1D9F1DF4E046
:101350009595879577956795FA95D1F7680D791DDD
:101360008A1D9B1D26960FB6F894DEBF0FBECDBF1B
:10137000DF91CF91FF90EF90DF90CF90BF90AF9033
:101380009F908F907F906F905F904F900895A501F0
:101390009401DCD149015A01880C991CAA1CBB1C80
:1013A00088CF1F920F920FB60F9211242F933F9365
:1013B0008F939F93AF93BF938091E6009091E70046
:1013C000A091E800B091E9003091E50026E0230FFC
:1013D0002D3768F129E8230F0396A11DB11D209335
:1013E000E5008093E6009093E700A093E800B093B7
:1013F000E9008091EA009091EB00A091EC00B0919F
:10140000ED000196A11DB11D8093EA009093EB00C1
:10141000A093EC00B093ED00BF91AF919F918F919D
:101420003F912F910F900FBE0F901F90189502962D
:10143000A11DB11DD4CF2FB7F8946091E600709133
:10144000E7008091E8009091E9002FBF08953FB731
:10145000F8948091EA009091EB00A091EC00B0919B
:10146000ED0022B708B601FE05C02F3F19F0019626
:10147000A11DB11D3FBFBA2FA92F982F8827BC01EE
:10148000CD01620F711D811D911D43E0660F771F15
:10149000881F991F4A95D1F708950895CF92DF923A
:1014A000EF92FF92CF93DF936B017C01D0DFEB01D2
:1014B000C114D104E104F10461F0EFDFC8DF6C1B5B
:1014C0007D0B683E7340A0F3C114D104E104F10424
:1014D00039F4DF91CF91FF90EF90DF90CF90089596
:1014E00081E0C81AD108E108F108C851DC4FE6CF05
:1014F00083E08ABD82E083BF789489B7826089BF28
:1015000080E48CBD8FEF8DBD84EC80BF83E886B90D
:101510000895CF92DF92EF92FF920F931F93CF9394
:10152000DF936C01EB017B01E40EF51E10E000E09F
:10153000CE15DF0561F06991D601ED91FC91019026
:10154000F081E02DC6010995080F191FF1CFC801E0
:10155000DF91CF911F910F91FF90EF90DF90CF908F
:101560000895FB0101900020E9F73197AF01461B78
:10157000570BDC01ED91FC910280F381E02D099481
:10158000F0CFDC01ED91FC910190F081E02D099408
:101590008F929F92AF92BF92CF92DF92EF92FF9283
:1015A0000F931F93CF93DF93CDB7DEB7A1970FB6FD
:1015B000F894DEBF0FBECDBF6C01142FE52FCB0119
:1015C000022F19A2223008F40AE07E0121E2E20E85
:1015D000F11C802E912CB12CA12C612F7E2FA50106
:1015E0009401B4D0802F622F7ED0181B1A300CF5D6
:1015F000105DF70112937F01122FE32FCA01232BF5
:10160000242B252B51F7B701C601ABDFA1960FB6EE
:10161000F894DEBF0FBECDBFDF91CF911F910F9128
:10162000FF90EF90DF90CF90BF90AF909F908F9002
:101630000895195CDECFCF92DF92EF92FF920F9365
:101640001F93CF93DF93EC016A017B0121153105D4
:1016500079F4E881F9810190F081E02D642FDF9128
:10166000CF911F910F91FF90EF90DF90CF90099451
:101670002A303105F9F410E000E0F7FE0BC06DE20E
:1016800080DF8C01F094E094D094C094C11CD11CF4
:10169000E11CF11C2AE0B701A601CE0179DF800F21
:1016A000911FDF91CF911F910F91FF90EF90DF90ED
:1016B000CF900895DF91CF911F910F91FF90EF9000
:1016C000DF90CF9065CF2115310541F4DC01ED911C
:1016D000FC910190F081E02D642F099459CF08DF2F
:1016E0007ED7E6D7FECF002480FD060E660F11F0F0
:1016F0008695D1F7802D08950024552704C0080E43
:10170000591F880F991F009729F076956795B8F3B0
:101710007105B9F7802D952F0895EE27FF27AA2789
:10172000BB2708C0A20FB31FE41FF51F220F331FF2
:10173000441F551F969587957795679598F3704048
:10174000A9F7009799F7BD01CF010895A1E21A2EDC
:10175000AA1BBB1BFD010DC0AA1FBB1FEE1FFF1F55
:10176000A217B307E407F50720F0A21BB30BE40BA5
:10177000F50B661F771F881F991F1A9469F76095EC
:101780007095809590959B01AC01BD01CF010895A6
:10179000052E97FB16F400940FD057FD05D0D6DF29
:1017A00007FC02D046F408C050954095309521952D
:1017B0003F4F4F4F5F4F089590958095709561957D
:1017C0007F4F8F4F9F4F0895EE0FFF1F0590F491AD
:0817D000E02D0994F894FFCF0D
:1017D80040B004802E001E0010042C3A00000000C7
:0417E8007A05890AEB
:00000001FF
