:10000000F1C115C214C213C212C206CA10C20FC275
:100010000EC20DC20CC20BC20AC209C208C2000045
:1000200000000000000000000000000000000000D0
:1000300000000000000000000000000000000000C0
:100040000000000080808000000000000000000030
:1000500000000040E37F3F000000000000000000BF
:100060000000000000000000000000000000000090
:1000700000E0E0E0E0E0E0E0E0E0000000000000A0
:100080000000000000000000000000000000000070
:100090000000000000000000000000000000000060
:1000A0000000000000000000000000000000000050
:1000B0000000000000000000000000000000000040
:1000C0000000000000000000000000000000000030
:1000D00000000000E0E0E000000000000000000080
:1000E00000000000000080F8F87800000000000028
:1000F0000000000080F8FF7F070000000000000003
:10010000000080F8FF7F07000000000000000000F2
:1001100080F8FF7F070000000000000000000000E2
:10012000C0E0F07838383878F0E0C0000000F8FF20
:10013000FF070000000000000007FFFFF800FFFFBE
:10014000FF000000000000000000FFFFFF00000FA4
:100150001F3F78F0E0E0E0F0783F1F07000000006C
:100160000000000080C0F0F8F8000000000000006F
:10017000381C0E0F0703FFFFFF0000000000000007
:10018000000000000000FFFFFF0000000000000072
:10019000000000000000FFFFFF000000000000C0A2
:1001A000E0F070783838383878F0E0C000000E0F92
:1001B0000F0100000000000000C1FFFF3F00000031
:1001C000000080C0E0F0783E1F0F03010000E0F85F
:1001D000FEFFEFE7E1E0E0E0E0E0E0E0E00000C0AB
:1001E000E0F0783838383878F0E0C0800000030359
:1001F00003000000808080C0E0FF7F1F000000003F
:100200000000000003030303071FFEFCF000071FAC
:100210003F7C70E0E0E0E0F0707C3F1F03000000F6
:10022000000000000000C0F0F8F8F8000000000036
:100230000080E0F07C3F0F03FFFFFF000000E0F8CC
:10024000FEDFC7C1C0C0C0C0FFFFFFC0C0C001010A
:100250000101010101010101FFFFFF010101008016
:10026000F8F8783838383838383838380000C0FF6F
:10027000FFFFE070707070F0E0E0C08000000303EA
:1002800003010000000000000103FFFFFC00071F46
:100290003F7C70E0E0E0E0F0787E1F0F010000009E
:1002A000C0E0F0703838383878F0E0C00000F0FF77
:1002B000FF83C0C0E0E0E0E0C0C083030300FFFFB5
:1002C000FF070101000000010107FFFFFC00000F14
:1002D0001F3E78F0E0E0E0F0787C3F0F0300383814
:1002E000383838383838383838B8F8F83800000036
:1002F0000000000000C0F0FC3F0F03000000000001
:100300000000C0F8FF3F07000000000000000000F0
:1003100000F8FFFF07000000000000000000008060
:10032000E0F0F07838383878F0F0C0800000001F36
:100330007FFFE0C0808080C0E0FF7F1F0000F0FCF6
:10034000FE1E070303030307071EFCF8F000071F48
:100350003F7C70F0E0E0E0E0707C3F1F070000C0F1
:10036000E0F0F07838383878F0E0C0800000FEFF28
:10037000FF030000000000000001FFFFF80000077D
:100380000F1F1C3C3838381C1C0FFFFF7F00061E57
:100390007E78F0E0E0E0E070783E1F0700000000AB
:1003A00000000000383838000000000000000000A5
:1003B000000000000000000000000000000000003D
:1003C00000000000E0E0E00000000000000000008D
:1003D0000000000000000000000000000000C8A1B4
:1003E0008D14CA0311241FBECFE5D2E0DEBFCDBFFE
:1003F00010E0A0E6B0E0EEE4F8E102C005900D9256
:10040000A437B107D9F720E0A4E7B0E001C01D92FE
:10041000AF3EB207E1F711E0C2EFD1E003C0219790
:10042000FE010DDAC13FD107D1F794D90ECAE8CD4C
:1004300080EC90E0F3C1682F80EC90E0C8D121E01F
:10044000892B09F420E0822F08956CE380EC90E082
:10045000B8D181E0089580EC90E0B2D1F6DFE8DF1A
:10046000882331F06AE070E080E090E052D8F6CF67
:1004700008958F929F92AF92BF92CF92DF92EF92A8
:10048000FF920F931F93FA01C080D180E280F38026
:100490004B015C018C189D08AE08BF087501640112
:1004A000C016D106E206F30680F060837183828372
:1004B000938381E01F910F91FF90EF90DF90CF9099
:1004C000BF90AF909F908F90089580E0F3CFCF9230
:1004D000DF92EF92FF9240E060E08CEB90E02ED351
:1004E00060917A0070917B0080917C0090917D00FA
:1004F00024E6C22ED12CE12CF12CA701960183D940
:10050000BA01A9012AE030E08CEB90E0CFD864E694
:1005100070E08CEB90E06FD860917A0070917B0076
:1005200080917C0090917D00A70196016CD9AB0170
:10053000BC012AE030E08CEB90E0B8D88CEB90E086
:10054000F9D340E060E08CEB90E0F8D26091760067
:10055000709177008091780090917900A7019601C1
:1005600030D9BA01A9012AE030E08CEB90E0E6D85E
:1005700064E670E08CEB90E03ED86091760070917C
:1005800077008091780090917900A701960119D9A0
:10059000AB01BC012AE030E08CEB90E0CFD88CEBD3
:1005A00090E0C8D38CEB90E0CCD38CEB90E0C9D337
:1005B00064E670E080E090E0FF90EF90DF90CF90F5
:1005C000A8C7CF92DF92EF92FF920F931F936ED73F
:1005D00060938600709387008093880090938900D1
:1005E00000E61AEE20E030E042E850E042DFC09042
:1005F0008600D0908700E0908800F090890008E89D
:1006000013E120E030E04EE750E0882309F451C0C8
:10061000C701B6012EDF882341F18AE890E0E2D3DA
:1006200060E08AE890E074D5009174001091750044
:10063000012E000C220B330B601B710B820B930BF2
:1006400060937600709377008093780090937900A0
:1006500060E08AE890E01BD460937A0070937B009E
:1006600080937C0090937D0018C061E08AE890E060
:100670004FD50091740010917500012E000C220BD3
:10068000330B601B710B820B930B6093760070939E
:100690007700809378009093790019DF68EE73E01B
:1006A00080E090E01F910F91FF90EF90DF90CF904E
:1006B00030C7C701B601DDDE882381F361E0C9CF11
:1006C0000F931F93F3D660938200709383008093FF
:1006D00084009093850060937E0070937F008093E8
:1006E00080009093810080EC90E06AD00EED13E0E2
:1006F00024E040E460E88CEB90E0FFD164EF71E02F
:1007000080E090E006D766E670E08CEB90E011D2D6
:100710008CEB90E00DD38CEB90E00CD38CEB90E065
:1007200017D38AE890E0E8D48AE890E05BD360E0F1
:100730008AE890E0EDD40091740010917500012ECC
:10074000000C220B330B601B710B820B930B60931D
:10075000760070937700809378009093790060E042
:100760008AE890E094D360937A0070937B00809342
:100770007C0090937D00ABDE88E199E20FB6F8949F
:10078000A89581BD0FBE91BD1F910F91089519DFEE
:10079000A89508950F931F9308E112E02BE132E032
:1007A00045E252E06BE272E08CEB90E05DD120E03C
:1007B00046E760EC70E08AE890E01F910F9184C4F6
:1007C0004FC01092C300660F6093C4000895E0917B
:1007D000C300E13150F4EF5FE093C300F0E0EC536D
:1007E000FF4F608381E090E0089590E080E00895FD
:1007F000CF93C62F6091C3006F5F84EC90E0DBD095
:100800001092C300882329F0CC2329F0D7D081117E
:1008100002C0CF9130C080E0CF91089561E0E8CF71
:100820001092C2004093C100660F61606093C400E3
:1008300061E0640F84EC90E0BED0882319F0BED054
:10084000811101C018C080E00895E091C200EF5FFF
:10085000E093C200F0E0EC53FF4F808190E00895F8
:10086000C09AC29ABA9AB89A8FEF8FB98AE28DB9B4
:1008700080EF8EB908958091D60008958EB98BE2ED
:1008800000C000C000008DB9B29BFECF00C000C008
:100890008DB9769BF5CF00C000C000008FB19FEFEF
:1008A0009FB9B89A0895C29AC29BFECF00C000C0FB
:1008B0000000C09800C000C0C298C09A779905C0D7
:1008C00083E08093D60080E0089581E00895AF92A0
:1008D000BF92CF92DF92EF92FF920F931F93CF932D
:1008E000DF938C01E62E8091D60081608093D60044
:1008F000F801908190FD03C082608093D600D3DF21
:10090000882311F1FE2CE801BB24BA94AA24A394F5
:100910006E01FFEFCF1ADF0A8091D6008370D9F104
:10092000C29888818FB980EFA9DFB8988EEFA6DFD3
:100930009091D60080FF17C0892F817090FF0FC063
:1009400081E08093D60080E0DF91CF911F910F91DD
:10095000FF90EF90DF90CF90BF90AF90089592E01E
:100960009093D600F1CF892F8570843059F4F80127
:10097000808181608083A092D60095DF811118C0AC
:100980009AE0EECF9E7F9093D600E601FA94F110A4
:10099000BFCF81E0D9CFB89880EF70DF8883F1E0D6
:1009A000FF1204C0BFB88EEF69DFEFCF1FB8FBCFD7
:1009B000FE2CE801EBCF1092D60089CFC098C29AE6
:1009C000B29BFECF00C000C0C09A00C000C00000B3
:1009D0009EB1892F807295FD04C094E09093D6005B
:1009E000089581E00895E091D900F091DA0009942A
:1009F000E091D700F091D8000994E091DB00F091EC
:100A0000DC00099580E4EFCFCF93C82F8091DF0001
:100A10008C27E9DF811107C0EBDFEFDF8091DF007A
:100A20008C27CF91E0CFCF910895E091DB00F0913A
:100A3000DC00099580E0D7CFCF93C82FF6DF8C2F4D
:100A4000D2DFCF91D5CF1F93CF93DF93182FD62F1F
:100A5000C42FEBDF812FC7DF8D2FC5DF8C2FC3DFC6
:100A6000DF91CF911F91C4CF0F931F93DC01139699
:100A70001C921E921297E0E7F0E0ED93FC937093C6
:100A8000DE006093DD005093DC004093DB00309388
:100A9000DA002093D9001093D8000093D7001F915B
:100AA0000F910895CF92DF92EF92FF921F93CF9311
:100AB000DF93E62E6A01E091DD00F091DE000995FA
:100AC000B4DFF12CD0E0C0E0CE15DF0571F0F60107
:100AD000EC0FFD1F1491812F86DF811104C088DF88
:100AE000A4DF812F80DF2196EFCFDF91CF911F917F
:100AF000FF90EF90DF90CF907BCF0F931F93E42F69
:100B0000A801A0E8B0E0A61BB109B595A795A093F0
:100B1000E5001092E40060936300F0E063E0F59577
:100B2000E7956A95E1F7E0936200622F1F910F91BC
:100B3000B9CF7093E3006093E2000895CF93DF9301
:100B4000D62FC42F6091E5006D0F462F4F70629530
:100B50006F7060618091E4008C0F877090916100EC
:100B6000892B71DFD093E100C093E000DF91CF913A
:100B70000895FC012091E000260F2093E000909161
:100B80006200A92FA61BBB0B2A171B0621F01CF025
:100B9000961B9093E0004091E00060E0CF01CECF43
:100BA0008F929F92BF92CF92DF92EF92FF920F931C
:100BB0001F93CF93DF93E091E200F091E300309731
:100BC00049F06D3039F0D62F8C01C3816A3081F441
:100BD0006C2FCFDF81E090E0DF91CF911F910F91DB
:100BE000FF90EF90DF90CF90BF909F908F900895EF
:100BF000B2802091E1008091630090E0CB2CD12C59
:100C00008C199D092817190621F01CF06C2FC801BA
:100C1000B0DFE091E200F091E30024818C2F90E0BE
:100C2000B601A5D5BC014D2F421B550BCA019FD55E
:100C30007C01DC2FE2DEC701282F2E192B1588F44A
:100C40004C015FEF851A950AE091E200F091E30014
:100C50000190F081E02DE80FF91F8491D5DEC401E9
:100C6000EBCFEC0CFD1CC4DE6091E100C13031F42F
:100C70006B0D6093E100D150E9F6ACCF4091E000FC
:100C80004F5FD23018F0C80159DFF5CF4C1B6B0D08
:100C9000FACF1F93CF93DF93D62F142FC0E0C11745
:100CA00021F08D2FB1DECF5FFACFDF91CF911F9171
:100CB00008950F931F93CF93DF93442391F0C42F94
:100CC000D62F8C018091E100840F8093E10095DEA6
:100CD0004C2F6D2FC801DDDFDF91CF911F910F9158
:100CE00087CEDF91CF911F910F91089540916300BE
:100CF0002091E100421BDDCF0F931F93CF93DF9331
:100D00008C01D62FC0E080916200C81748F44C2FA8
:100D100060E0C80113DF6D2FC801E8DFCF5FF3CFBC
:100D200040E060E0C801DF91CF911F910F9106CFA5
:100D300060E0E2CF8091610094E0892780936100B8
:100D400008958091600090E289278093600074CEBE
:100D50008FEA72CE1F93CF93DF93EC018881998144
:100D600074DD182F8881998170DD20E0382FC9014A
:100D7000812BDF91CF911F9108950F931F93CF93F4
:100D8000DF93EC018881998160DD182F888199813A
:100D90005CDD082F8881998158DD412F50E070E09B
:100DA00060E09CE0440F551F661F771F9A95D1F7AE
:100DB00010E030E020E0E4E0000F111F221F331F9D
:100DC000EA95D1F7402B512B622B732B82958F70B4
:100DD0008A019B01082BC901B801DF91CF911F91B6
:100DE0000F910895CF93DF93EC016A8188819981F7
:100DF000E8DC64EF88819981EADC65E28881998189
:100E0000E6DC888199810ADD64E670E080E090E0AC
:100E1000DF91CF917EC3CF93DF93EC016A8188810C
:100E20009981CFDC60ED88819981D1DC88819981BD
:100E3000F5DC41E06A8188819981F2DC88819981C1
:100E400004DD8B836A8188819981BBDC8B8180364C
:100E500041F462EF88819981BADC61E088819981EF
:100E6000B6DC64EF88819981B2DC64E28881998183
:100E7000AEDC68E888819981AADC88819981CEDC22
:100E800064E670E080E090E0DF91CF9142C34F9242
:100E90005F926F927F928F929F92AF92BF92CF920A
:100EA000DF92EF92FF92CF93DF93EC01F62E6A81EF
:100EB0008881998186DCFF2041F064EF88819981E7
:100EC00086DC61E28881998182DC6AEF8881998180
:100ED0007EDC88819981A2DC43E06A8188819981E6
:100EE0009FDCCE014ADF4B015C014E805F80712C9C
:100EF000612C24E095958795779567952A95D1F78C
:100F000064197509860997099B01AC0141D43CE03D
:100F100095958795779567953A95D1F72A853B857D
:100F2000032E000C440B550B33D46B017C0143E0C2
:100F3000B594A794979487944A95D1F7440C551C7F
:100F4000661C771CC501B4016419750986099709E7
:100F500028853985032E000C440B550B19D4EBE082
:100F60009595879577956795EA95D1F7FEE0F59485
:100F7000E794D794C794FA95D1F76C0D7D1D8E1D1B
:100F80009F1D6EA77FA788AB99AB25E030E040E0BE
:100F900050E0FED360587F4F8F4F9F4F672F782FC1
:100FA000892F992787FD9A95DF91CF91FF90EF9038
:100FB000DF90CF90BF90AF909F908F907F906F9079
:100FC0005F904F900895EF92FF920F931F93CF93EE
:100FD000DF93EC014AE16A818881998121DCCE01AD
:100FE000B9DE9F838E83CE01B5DE99878887CE01D7
:100FF000B1DE9B878A878E01025F1F4F7E0180E2F0
:10100000E80EF11CCE01A6DEF801819391938F01C9
:10101000EE16FF06B9F78881998117DC88819981DE
:1010200014DC99279BA38AA36A8188819981C9DBF3
:1010300061EE88819981CBDB88819981EFDB47E084
:101040006A8188819981ECDBCE0184DE9DA38CA32B
:1010500088819981FADB99279FA38EA38881998142
:10106000F4DB8C0188819981F0DB7C0184E0000F46
:10107000111F8A95E1F7007F1F70C7018F709927B4
:10108000082B192B19A708A788819981DEDB24E09A
:10109000880F991F2A95E1F7E2943FE0E3228E0D35
:1010A000911D9BA78AA788819981CFDB082E000C10
:1010B000990B9DA78CA760E0CE01DF91CF911F9186
:1010C0000F91FF90EF90E3CECF93DF93EC01798304
:1010D00068834A83222369F0CB0172DB62E070E00F
:1010E00080E090E016D2CE0196DECE01DF91CF9166
:1010F0006ACFDF91CF910895CF93DF93EC01888180
:1011000099815EDBCE0187DECE01DF91CF915BCF8F
:101110004F925F926F927F928F929F92AF92BF9207
:10112000CF92DF92EF92FF92CF93DF9300D000D067
:1011300000D0CDB7DEB79E838D83F62EFC01628191
:10114000808191813EDBFF2061F064EFED81FE81C3
:10115000808191813CDB65E2ED81FE81808191811E
:1011600036DB67EFED81FE818081918130DBED819F
:10117000FE818081918152DB43E0ED81FE816281BD
:10118000808191814DDB8D819E81F7DD69837A833A
:101190008B839C83ED81FE81C6A4D7A4E0A8F1A82F
:1011A000F594E794D794C794FAEFDF1AE108F108B1
:1011B000C701B601A2E09595879577956795AA95A1
:1011C000D1F79B01AC01E4D22B013C01ED81FE8102
:1011D00062897389072E000C880B990BA301920179
:1011E000BDE05595479537952795BA95D1F7D0D25B
:1011F0004B015C0183E0B594A794979487948A95FA
:10120000D1F7ED81FE8160897189072E000C880B72
:10121000990BA7019601BCD295958795779567950F
:10122000680D791D8A1D9B1D32E1959587957795EF
:1012300067953A95D1F770588F4F9F4FED81FE819A
:101240002685378550E040E0A3D24B015C014FE09A
:10125000B594A794979487944A95D1F760E070E08D
:10126000CB0181149104A104B10409F4B6C0C301F7
:10127000B2012BE095958795779567952A95D1F7DB
:10128000ED81FE81208D318D032E000C440B550B1A
:101290007FD22B013C01ED81FE8166897789072E83
:1012A000000C880B990BA701960172D2660F771F6D
:1012B000881F991F460E571E681E791E42E07594BE
:1012C0006794579447944A95D1F7ED81FE818489BC
:1012D0009589092E000CAA0BBB0B77276627640D96
:1012E000751D861D971DECE09595879577956795FB
:1012F000EA95D1F729813A814B815C81620F731F96
:10130000841F951F2BEC33EF4FEF5FEF41D2805BD3
:101310009C4397FD77C0660F771F881F991FA50113
:1013200094014FD249015A01C501B40123E09695B9
:101330008795779567952A95D1F79B01AC0128D2BF
:101340003DE096958795779567953A95D1F7ED812C
:10135000FE81268D378D032E000C440B550B18D2C1
:101360006B017C014CE0F594E794D794C7944A95BF
:10137000D1F7C501B40152E09695879577956795A9
:101380005A95D1F7ED81FE81248D358D032E000C09
:10139000440B550BFDD1EDE09595879577956795B5
:1013A000EA95D1F76C0D7D1D8E1D9F1DED81FE818F
:1013B000C28CD38C0D2C000CEE08FF086C0D7D1D2B
:1013C0008E1D9F1DF4E09595879577956795FA9505
:1013D000D1F7680D791D8A1D9B1D26960FB6F894CE
:1013E000DEBF0FBECDBFDF91CF91FF90EF90DF90BA
:1013F000CF90BF90AF909F908F907F906F905F90B5
:101400004F900895A5019401DCD149015A01880C3F
:10141000991CAA1CBB1C88CF1F920F920FB60F926B
:1014200011242F933F938F939F93AF93BF938091FA
:10143000E7009091E800A091E900B091EA003091B6
:10144000E60026E0230F2D3768F129E8230F0396E5
:10145000A11DB11D2093E6008093E7009093E80062
:10146000A093E900B093EA008091EB009091EC002A
:10147000A091ED00B091EE000196A11DB11D8093E9
:10148000EB009093EC00A093ED00B093EE00BF91C1
:10149000AF919F918F913F912F910F900FBE0F9021
:1014A0001F9018950296A11DB11DD4CF2FB7F894A7
:1014B0006091E7007091E8008091E9009091EA0066
:1014C0002FBF08953FB7F8948091EB009091EC0006
:1014D000A091ED00B091EE0022B708B601FE05C064
:1014E0002F3F19F00196A11DB11D3FBFBA2FA92FA3
:1014F000982F8827BC01CD01620F711D811D911DA0
:1015000043E0660F771F881F991F4A95D1F708950A
:101510000895CF92DF92EF92FF92CF93DF936B010A
:101520007C01D0DFEB01C114D104E104F10461F0CE
:10153000EFDFC8DF6C1B7D0B683E7340A0F3C11466
:10154000D104E104F10439F4DF91CF91FF90EF90E1
:10155000DF90CF90089581E0C81AD108E108F10822
:10156000C851DC4FE6CF83E08ABD82E083BF789428
:1015700089B7826089BF80E48CBD8FEF8DBD84EC1C
:1015800080BF83E886B90895CF92DF92EF92FF92F1
:101590000F931F93CF93DF936C01EB017B01E40E5C
:1015A000F51E10E000E0CE15DF0561F06991D6016F
:1015B000ED91FC910190F081E02DC6010995080F95
:1015C000191FF1CFC801DF91CF911F910F91FF90AB
:1015D000EF90DF90CF900895FB0101900020E9F794
:1015E0003197AF01461B570BDC01ED91FC91028056
:1015F000F381E02D0994F0CFDC01ED91FC91019095
:10160000F081E02D09948F929F92AF92BF92CF927A
:10161000DF92EF92FF920F931F93CF93DF93CDB79B
:10162000DEB7A1970FB6F894DEBF0FBECDBF6C0139
:10163000142FE52FCB01022F19A2223008F40AE063
:101640007E0121E2E20EF11C802E912CB12CA12C06
:10165000612F7E2FA5019401B4D0802F622F7ED000
:10166000181B1A300CF5105DF70112937F01122F31
:10167000E32FCA01232B242B252B51F7B701C601D9
:10168000ABDFA1960FB6F894DEBF0FBECDBFDF91E2
:10169000CF911F910F91FF90EF90DF90CF90BF906F
:1016A000AF909F908F900895195CDECFCF92DF921C
:1016B000EF92FF920F931F93CF93DF93EC016A0198
:1016C0007B012115310579F4E881F9810190F081E0
:1016D000E02D642FDF91CF911F910F91FF90EF903C
:1016E000DF90CF9009942A303105F9F410E000E042
:1016F000F7FE0BC06DE280DF8C01F094E094D09493
:10170000C094C11CD11CE11CF11C2AE0B701A60148
:10171000CE0179DF800F911FDF91CF911F910F9143
:10172000FF90EF90DF90CF900895DF91CF911F91C0
:101730000F91FF90EF90DF90CF9065CF211531058D
:1017400041F4DC01ED91FC910190F081E02D642FDA
:10175000099459CF08DFB4D71AD8FECF002480FDF2
:10176000060E660F11F08695D1F7802D089500249E
:10177000552704C0080E591F880F991F009729F09C
:1017800076956795B8F37105B9F7802D952F089573
:10179000EE27FF27AA27BB2708C0A20FB31FE41F0D
:1017A000F51F220F331F441F551F96958795779578
:1017B000679598F37040A9F7009799F7BD01CF019D
:1017C0000895A1E21A2EAA1BBB1BFD010DC0AA1F82
:1017D000BB1FEE1FFF1FA217B307E407F50720F09A
:1017E000A21BB30BE40BF50B661F771F881F991F15
:1017F0001A9469F760957095809590959B01AC015E
:10180000BD01CF010895052E97FB16F400940FD06B
:1018100057FD05D0D6DF07FC02D046F408C050952E
:101820004095309521953F4F4F4F5F4F08959095CC
:101830008095709561957F4F8F4F9F4F0895EE0F64
:0E184000FF1F0590F491E02D0994F894FFCF5E
:10184E0040B004802E001E0010042C3A0000000050
:04185E00D005C40AE3
:00000001FF
