:1000000009C32DC32CC32BC32AC32BCB28C327C39F
:1000100026C325C324C323C3ACC421C320C300000B
:1000200000000000000000000000000000000000D0
:1000300000F0F00000000000001717000000007042
:10004000700070700000000000000000000040F030
:10005000F040F0F04000041F1F041F1F0400E0F0F8
:1000600010FC103020000819117F111F0E0060F0E5
:10007000906080C06000000C06030D1E120C00E0B2
:10008000F01010302000000E1F11111F1E00000084
:100090000070700000000000000000000000000080
:1000A00000C0E0301000000000070F181000001022
:1000B00030E0C00000000010180F070000000060D2
:1000C000C0F0C06000000003010701030000000051
:1000D00000C0C0000000000101070701010000008E
:1000E0000000000000000000407030000000000030
:1000F00000000000000000000101010100000000FC
:1001000000000000000000000010100000000000CF
:100110000080F070000000001C1F0300000000E0E1
:10012000F01090F0E000000F1F13111F0F0000C02F
:1001300060F0F00000000010101F1F1010000020E1
:10014000301090F06000001C1E13111010000020F1
:10015000301010F0E00000081811111F0E00000010
:1001600080C060F0F00000030302021F1F0000F0D7
:10017000F0909090100000081810101F0F0000E081
:10018000F01010302000000F1F11111F0E00001082
:10019000101090F07000001C1E030100000000E031
:1001A000F01010F0E000000E1F11111F0E0000E013
:1001B000F01010F0E00000081911111F0F000000EE
:1001C000004040000000000000101000000000008F
:1001D00000404000000000004070300000000000BF
:1001E0000080C04000000000010306040000000081
:1001F00080808080000000000202020200000000F7
:1002000040C0800000000000040603010000002040
:10021000301090F060000000001717000000E010A0
:100220009050D010E0000F1013141714030000E0DA
:10023000F01010F0E000001F1F02021F1F0000F06E
:10024000F01010F0E000001F1F11111F0E0000E061
:10025000F01010302000000F1F101018080000F0E0
:10026000F01010F0E000001F1F10101F0F0000F032
:10027000F01010101000001F1F111110100000F0DE
:10028000F01010101000001F1F010100000000E01E
:10029000F01010302000000F1F10111F1F0000F081
:1002A000F00000F0F000001F1F01011F1F000010F0
:1002B00010F0F01010000010101F1F1010000000B0
:1002C000001010F0F01000081810101F0F0000F0C0
:1002D000F080C0703000001F1F03061C180000F0E3
:1002E000F00000000000001F1F1010101000F0F0C0
:1002F000C080C0F0F0001F1F0001001F1F0000F0B1
:10030000F08000F0F000001F1F01031F1F0000E03D
:10031000F01010F0E000000F1F10101F0F0000F091
:10032000F01010F0E000001F1F010101000000E0CC
:10033000F01010F0E000000F1F160C1F170000F067
:10034000F01010F0E000001F1F03071D180000E070
:10035000F0101030200000081911111F0E000010BD
:1003600010F0F01010000000001F1F00000000F04F
:10037000F00000F0F000000F1F10101F0F0000F041
:10038000F00000F0F00000070F18180F0700F0F061
:1003900000C000F0F0000F1F100F101F0F000070C2
:1003A000F08080F07000001C1E03031E1C00007013
:1003B000F08080F070000000001F1F00000000109F
:1003C000101090F07000001C1E131110100000009F
:1003D00000F0F01010000000001F1F1010000000BF
:1003E00070F080000000000000031F1C00000010DF
:1003F00010F0F00000000010101F1F00000000C0EF
:1004000060303060C000000000000000000000000C
:1004100000000000000040404040404040400000DC
:1004200010302000000000000000000000000080EC
:10043000C04040C08000000C1E12121F1F0000F0C0
:10044000F04040C08000001F1F10101F0F000080F0
:10045000C04040C08000000F1F101018080000802E
:10046000C04040F0F000000F1F10101F1F00008060
:10047000C04040C08000000F1F12121B0B00000084
:1004800080E0F09090000000001F1F00000000803E
:10049000C04040C0C00000276F48487F3F0000F0C8
:1004A000F04040C08000001F1F00001F1F000040E0
:1004B00040D0D00000000010101F1F1010000000DE
:1004C000004040D0D00000206040407F3F0000F05E
:1004D000F00080C04000001F1F070D181000001022
:1004E00010F0F00000000010101F1F101000C0C01E
:1004F000408040C080001F1F0007001F1F0000C079
:10050000C04040C08000001F1F00001F1F0000806F
:10051000C04040C08000000F1F10101F0F0000C01F
:10052000C04040C08000007F7F10101F0F0000807F
:10053000C04040C0C000000F1F10107F7F0000C0EF
:10054000C00080C0C000001F1F010000000000802C
:10055000C04040C0800000091B12121E0C000000A9
:1005600040E0E04040000000000F1F10100000C0FD
:10057000C00000C0C000000F1F10101F0F0000C0FF
:10058000C00000C0C00000070F18180F0700C0C04F
:10059000000000C0C0000F1F100F101F0F0000C090
:1005A000C00000C0C00000181D07071D180000C0D3
:1005B000C00000C0C00000276F48487F3F000040D7
:1005C000404040C0C00000181C161311100000006D
:1005D00000E0F01010000000010F1E1010000000DD
:1005E00000F0F00000000000001F1F0000000010DD
:1005F00010F0E00000000010101E0F01000020307D
:100600001030203010000000000000000000C8A1E1
:100610008D14C80411241FBECFE5D2E0DEBFCDBFCC
:1006200010E0A0E6B0E0ECE0FCE102C005900D9225
:10063000A839B107D9F721E0A8E9B0E001C01D92BF
:10064000A531B207E1F713E0CAE0D3E003C0219778
:10065000FE0132DAC930D107D1F7B9D9D5CAD0CC29
:1006600086EE90E0D9C1682F86EE90E0AED121E011
:10067000892B09F420E0822F08956CE386EE90E048
:100680009ED181E0089586EE90E098D1F6DFE8DF14
:10069000882331F06AE070E080E090E05FD8F6CF28
:1006A0000895BF92CF92DF92EF92FF920F931F9324
:1006B000CF93DF9308E910E0F801408160E082EE1B
:1006C00090E046D368E670E082EE90E0B9D860E151
:1006D00070E080E090E063D9D62F62E070E080E0C7
:1006E00090E05DD9C62FB72E462F6D2F82EE90E099
:1006F0002FD360919C0070919D0080919E009091FD
:100700009F0024E6C22ED12CE12CF12CA7019601EA
:1007100095D9BA01A9012AE030E082EE90E033D900
:1007200069E770E082EE90E08BD860919C00709158
:100730009D0080919E0090919F00A70196017ED917
:10074000AB01BC012AE030E082EE90E01CD96BE7FF
:1007500070E082EE90E074D882EE90E0F5D3F8017C
:10076000408160E082EE90E0F3D268E670E082EED5
:1007700090E066D84C2F6D2F82EE90E0E9D2609128
:10078000A0007091A1008091A2009091A300A70108
:10079000960176D9BA01A9012AE030E082EE90E014
:1007A000AAD869E770E082EE90E04AD86091A00094
:1007B0007091A1008091A2009091A300A7019601E1
:1007C0005FD9AB01BC012AE030E082EE90E093D823
:1007D00060E870E082EE90E033D8C0939800B09269
:1007E000990082EE90E0B0D382EE90E0B4D382EE36
:1007F00090E0B1D364E670E080E090E0DF91CF91CB
:100800001F910F91FF90EF90DF90CF90BF90A6C700
:1008100072D76093AC007093AD008093AE0090935C
:10082000AF0080919A0090919B0061E0892B81F448
:1008300080EB90E0E3D360E080EB90E07FD56093C5
:100840009C0070939D0080939E0090939F0060E0B9
:1008500080EB90E028D46093A0007093A100809377
:10086000A2009093A30080919A0090919B00019622
:100870008770992790939B0080939A0012DF64EF12
:1008800071E080E090E06AC70F931F9334D76093C4
:10089000A8007093A9008093AA009093AB00609386
:1008A000A4007093A5008093A6009093A70086EE05
:1008B00090E084D00EE016E024E040E460E882EEB0
:1008C00090E025D264EF71E080E090E047D769E8DE
:1008D00070E082EE90E037D266E482EE90E042D3A0
:1008E00082EE90E041D382EE90E02CD382EE90E055
:1008F0002BD382EE90E026D382EE90E025D380EBDE
:1009000090E00BD580EB90E079D360E080EB90E055
:1009100015D560939C0070939D0080939E009093EA
:100920009F0060E080EB90E0BED36093A0007093E6
:10093000A1008093A2009093A300B3DE3798A895FE
:1009400088E199E20FB6F894A89581BD0FBE91BDDC
:1009500081B5806481BD789485B7877E806185BFCD
:100960001F910F91089554DF85B7806285BF8895E8
:1009700008951F920F920FB60F9211248F9381B595
:10098000806481BD8F910F900FBE0F901F901895BE
:100990000F931F9300E313E023E333E04DE353E0B1
:1009A00063E473E082EE90E069D120E046E766EE12
:1009B00070E080EB90E01F910F9197C44FC01092B0
:1009C000E900660F6093EA000895E091E900E131E3
:1009D00050F4EF5FE093E900F0E0E651FF4F6083F1
:1009E00081E090E0089590E080E00895CF93C62FD5
:1009F0006091E9006F5F8AEE90E0DBD01092E90031
:100A0000882329F0CC2329F0D7D0811102C0CF91BF
:100A100030C080E0CF91089561E0E8CF1092E80007
:100A20004093E700660F61606093EA0061E0640F45
:100A30008AEE90E0BED0882319F0BED0811101C0AB
:100A400018C080E00895E091E800EF5FE093E800CF
:100A5000F0E0E651FF4F808190E00895C09AC29A7D
:100A6000BA9AB89A8FEF8FB98AE28DB980EF8EB9B2
:100A700008958091FC0008958EB98BE200C000C0FB
:100A800000008DB9B29BFECF00C000C08DB9769B2F
:100A9000F5CF00C000C000008FB19FEF9FB9B89A9A
:100AA0000895C29AC29BFECF00C000C00000C0984B
:100AB00000C000C0C298C09A779905C083E08093B7
:100AC000FC0080E0089581E00895AF92BF92CF923C
:100AD000DF92EF92FF920F931F93CF93DF938C01DE
:100AE000E62E8091FC0081608093FC00F8019081EB
:100AF00090FD03C082608093FC00D3DF882311F156
:100B0000FE2CE801BB24BA94AA24A3946E01FFEF43
:100B1000CF1ADF0A8091FC008370D9F1C2988881D6
:100B20008FB980EFA9DFB8988EEFA6DF9091FC0017
:100B300080FF17C0892F817090FF0FC081E08093E4
:100B4000FC0080E0DF91CF911F910F91FF90EF901B
:100B5000DF90CF90BF90AF90089592E09093FC000B
:100B6000F1CF892F8570843059F4F801808181603C
:100B70008083A092FC0095DF811118C09AE0EECF2F
:100B80009E7F9093FC00E601FA94F110BFCF81E0C4
:100B9000D9CFB89880EF70DF8883F1E0FF1204C0EE
:100BA000BFB88EEF69DFEFCF1FB8FBCFFE2CE80197
:100BB000EBCF1092FC0089CFC098C29AB29BFECFB7
:100BC00000C000C0C09A00C000C000009EB1892FC4
:100BD000807295FD04C094E09093FC00089581E03C
:100BE0000895E091FF00F09100010994E091FD006B
:100BF000F091FE000994E0910101F0910201099544
:100C000080E4EFCFCF93C82F809105018C27E9DFD7
:100C1000811107C0EBDFEFDF809105018C27CF91B9
:100C2000E0CFCF910895E0910101F0910201099583
:100C300080E0D7CFCF93C82FF6DF8C2FD2DFCF91B4
:100C4000D5CFCF93DF93D82FC62FEDDF8D2FC9DF00
:100C50008C2FC7DFDF91CF91C9CF1F93CF93DF9345
:100C6000182FD62FC42FDFDF812FBBDF8D2FB9DFE9
:100C70008C2FB7DFDF91CF911F91B8CF0F931F93C8
:100C8000DC0113961C921E921297E3E9F0E0ED93BB
:100C9000FC9370930401609303015093020140930D
:100CA0000101309300012093FF001093FE00009398
:100CB000FD001F910F910895CF92DF92EF92FF9266
:100CC0001F93CF93DF93E62E6A01E0910301F09129
:100CD00004010995A8DFF12CD0E0C0E0CE15DF05B6
:100CE00071F0F601EC0FFD1F1491812F7ADF811155
:100CF00004C07CDF98DF812F74DF2196EFCFDF9176
:100D0000CF911F91FF90EF90DF90CF906FCF0F9317
:100D10001F93E42FA801A0E8B0E0A61BB109B59588
:100D2000A795A0930B0110920A0160936700F0E071
:100D300063E0F595E7956A95E1F7E0936600622F29
:100D40001F910F91B9CF7093090160930801089525
:100D5000CF93DF93D62FC42F60910B016D0F462FD9
:100D60004F7062956F70606180910A018C0F87707F
:100D700090916500892B71DFD0930701C093060124
:100D8000DF91CF910895FC0120910601260F209359
:100D9000060190916600A92FA61BBB0B2A171B0604
:100DA00021F01CF0961B909306014091060160E033
:100DB000CF01CECF8F929F92BF92CF92DF92EF92D0
:100DC000FF920F931F93CF93DF93E0910801F0916F
:100DD0000901309749F06D3039F0D62F8C01C3816D
:100DE0006A3081F46C2FCFDF81E090E0DF91CF910A
:100DF0001F910F91FF90EF90DF90CF90BF909F9049
:100E00008F900895B280209107018091670090E053
:100E1000CB2CD12C8C199D092817190621F01CF018
:100E20006C2FC801B0DFE0910801F0910901248125
:100E30008C2F90E0B601D8D5BC014D2F421B550B2D
:100E4000CA01D2D57C01DC2FD6DEC701282F2E198E
:100E50002B1588F44C015FEF851A950AE091080183
:100E6000F09109010190F081E02DE80FF91F8491C4
:100E7000C9DEC401EBCFEC0CFD1CB8DE60910701AC
:100E8000C13031F46B0D60930701D150E9F6ACCF5E
:100E9000409106014F5FD23018F0C80159DFF5CFFD
:100EA0004C1B6B0DFACF1F93CF93DF93D62F142FCC
:100EB000C0E0C11721F08D2FA5DECF5FFACFDF9103
:100EC000CF911F9108950F931F93CF93DF934423E6
:100ED00091F0C42FD62F8C0180910701840F80934D
:100EE000070189DE4C2F6D2FC801DDDFDF91CF9127
:100EF0001F910F917BCEDF91CF911F910F9108959C
:100F00004091670020910701421BDDCF0F931F9393
:100F1000CF93DF938C01D62FC0E080916600C81775
:100F200048F44C2F60E0C80113DF6D2FC801E8DFE3
:100F3000CF5FF3CF40E060E0C801DF91CF911F9118
:100F40000F9106CF60E0E2CF8091650094E08927A1
:100F50008093650008958091640090E289278093D2
:100F6000640068CE81E86DCE8FEA64CE1F93CF9384
:100F7000DF93EC018881998166DD182F8881998142
:100F800062DD20E0382FC901812BDF91CF911F91C5
:100F900008950F931F93CF93DF93EC01888199817C
:100FA00052DD182F888199814EDD082F8881998123
:100FB0004ADD412F50E070E060E09CE0440F551F97
:100FC000661F771F9A95D1F710E030E020E0E4E04B
:100FD000000F111F221F331FEA95D1F7402B512B11
:100FE000622B732B82958F708A019B01082BC9019C
:100FF000B801DF91CF911F910F910895CF93DF93A7
:10100000EC016A8188819981DADC64EF88819981B9
:10101000DCDC65E288819981D8DC88819981FCDCFF
:1010200068EC70E080E090E0DF91CF9197C3CF93C0
:10103000DF93EC016A8188819981C1DC60ED888150
:101040009981C3DC88819981E7DC41E06A818881EC
:101050009981E4DC88819981F6DC8B836A818881BF
:101060009981ADDC8B81803641F462EF8881998172
:10107000ACDC61E088819981A8DC64EF888199818A
:10108000A4DC65E288819981A0DC68E88881998187
:101090009CDC88819981C0DC68EC70E080E090E0A5
:1010A000DF91CF915BC34F925F926F927F928F924D
:1010B0009F92AF92BF92CF92DF92EF92FF92CF9327
:1010C000DF93EC01F62E6A818881998178DCFF201C
:1010D00069F064EF8881998178DC61E28881998187
:1010E00074DC68EC70E080E090E038D36AEF8881CF
:1010F00099816BDC888199818FDC43E06A818881EA
:1011000099818CDCCE0145DF4B015C014E805F8014
:10111000712C612C24E095958795779567952A9594
:10112000D1F764197509860997099B01AC016DD443
:101130003CE095958795779567953A95D1F72A85FF
:101140003B85032E000C440B550B5FD46B017C01D7
:1011500043E0B594A794979487944A95D1F7440CAB
:10116000551C661C771CC501B401641975098609F4
:10117000970928853985032E000C440B550B45D45F
:10118000EBE09595879577956795EA95D1F7FEE021
:10119000F594E794D794C794FA95D1F76C0D7D1D1B
:1011A0008E1D9F1D6EA77FA788AB99AB25E030E011
:1011B00040E050E02AD460587F4F8F4F9F4F672FF9
:1011C000782F892F992787FD9A95DF91CF91FF90EE
:1011D000EF90DF90CF90BF90AF909F908F907F90D7
:1011E0006F905F904F900895EF92FF920F931F932F
:1011F000CF93DF93EC014AE16A81888199810EDC0B
:10120000CE01B4DE9F838E83CE01B0DE99878887BE
:10121000CE01ACDE9B878A878E01025F1F4F7E0165
:1012200080E2E80EF11CCE01A1DEF80181939193DA
:101230008F01EE16FF06B9F78881998104DC888159
:10124000998101DC99279BA38AA36A81888199816E
:10125000B6DB61EE88819981B8DB88819981DCDB1E
:1012600047E06A8188819981D9DBCE017FDE9DA329
:101270008CA388819981E7DB99279FA38EA388811E
:101280009981E1DB8C0188819981DDDB7C0184E03F
:10129000000F111F8A95E1F7007F1F70C7018F7043
:1012A0009927082B192B19A708A788819981CBDBCF
:1012B00024E0880F991F2A95E1F7E2943FE0E322AA
:1012C0008E0D911D9BA78AA788819981BCDB082E72
:1012D000000C990B9DA78CA760E0CE01DF91CF9108
:1012E0001F910F91FF90EF90DECECF93DF93EC0133
:1012F000798368834A83222369F0CB015FDB62E054
:1013000070E080E090E02AD2CE0191DECE01DF9144
:10131000CF916ACFDF91CF910895CF93DF93EC0106
:10132000888199814BDB62E070E080E090E016D22A
:10133000CE017DDECE01DF91CF9156CF4F925F92ED
:101340006F927F928F929F92AF92BF92CF92DF92D5
:10135000EF92FF92CF93DF9300D000D000D0CDB7B3
:10136000DEB79E838D836623D9F0FC016281808184
:10137000918125DB64EFED81FE818081918125DB08
:1013800065E2ED81FE81808191811FDBED81FE812F
:101390008081918141DB68EC70E080E090E0DED1FB
:1013A000ED81FE8162818081918109DB67EFED81B2
:1013B000FE818081918109DBED81FE8180819181B7
:1013C0002BDB43E0ED81FE8162818081918126DB10
:1013D0008D819E81DEDD69837A838B839C83ED81A1
:1013E000FE81C6A4D7A4E0A8F1A8F594E794D79409
:1013F000C794FAEFDF1AE108F108C701B601A2E0CD
:101400009595879577956795AA95D1F79B01AC013E
:10141000FCD22B013C01ED81FE8162897389072E8C
:10142000000C880B990BA3019201BDE055954795DF
:1014300037952795BA95D1F7E8D24B015C0183E047
:10144000B594A794979487948A95D1F7ED81FE81FE
:1014500060897189072E000C880B990BA7019601F2
:10146000D4D29595879577956795680D791D8A1DD6
:101470009B1D32E195958795779567953A95D1F7BC
:1014800070588F4F9F4FED81FE812685378550E044
:1014900040E0BBD24B015C014FE0B594A794979418
:1014A00087944A95D1F760E070E0CB0181149104F4
:1014B000A104B10409F4B6C0C301B2012BE09595B3
:1014C0008795779567952A95D1F7ED81FE81208DD7
:1014D000318D032E000C440B550B97D22B013C0190
:1014E000ED81FE8166897789072E000C880B990BA8
:1014F000A70196018AD2660F771F881F991F460E93
:10150000571E681E791E42E075946794579447945D
:101510004A95D1F7ED81FE8184899589092E000CC9
:10152000AA0BBB0B77276627640D751D861D971DBB
:10153000ECE09595879577956795EA95D1F72981A0
:101540003A814B815C81620F731F841F951F2BECC6
:1015500033EF4FEF5FEF59D2805B9C4397FD77C02D
:10156000660F771F881F991FA501940167D2490153
:101570005A01C501B40123E0969587957795679543
:101580002A95D1F79B01AC0140D23DE09695879515
:10159000779567953A95D1F7ED81FE81268D378D48
:1015A000032E000C440B550B30D26B017C014CE038
:1015B000F594E794D794C7944A95D1F7C501B4013F
:1015C00052E096958795779567955A95D1F7ED8175
:1015D000FE81248D358D032E000C440B550B15D246
:1015E000EDE09595879577956795EA95D1F76C0D20
:1015F0007D1D8E1D9F1DED81FE81C28CD38C0D2C17
:10160000000CEE08FF086C0D7D1D8E1D9F1DF4E083
:101610009595879577956795FA95D1F7680D791D1A
:101620008A1D9B1D26960FB6F894DEBF0FBECDBF58
:10163000DF91CF91FF90EF90DF90CF90BF90AF9070
:101640009F908F907F906F905F904F900895A5012D
:101650009401F4D149015A01880C991CAA1CBB1CA5
:1016600088CF1F920F920FB60F9211242F933F93A2
:101670008F939F93AF93BF9380910D0190910E0133
:10168000A0910F01B091100130910C0126E0230FC1
:101690002D3768F129E8230F0396A11DB11D209372
:1016A0000C0180930D0190930E01A0930F01B09354
:1016B00010018091110190911201A0911301B0913C
:1016C00014010196A11DB11D809311019093120187
:1016D000A0931301B0931401BF91AF919F918F918B
:1016E0003F912F910F900FBE0F901F90189502966B
:1016F000A11DB11DD4CF2FB7F89460910D01709149
:101700000E0180910F01909110012FBF08953FB7F6
:10171000F8948091110190911201A0911301B09160
:10172000140122B708B601FE05C02F3F19F001963B
:10173000A11DB11D3FBFBA2FA92F982F8827BC012B
:10174000CD01620F711D811D911D43E0660F771F52
:10175000881F991F4A95D1F708950895CF92DF9277
:10176000EF92FF92CF93DF936B017C01D0DFEB010F
:10177000C114D104E104F10461F0EFDFC8DF6C1B98
:101780007D0B683E7340A0F3C114D104E104F10461
:1017900039F4DF91CF91FF90EF90DF90CF900895D3
:1017A00081E0C81AD108E108F108C851DC4FE6CF42
:1017B00083E08ABD82E083BF789489B7826089BF65
:1017C00080E48CBD8FEF8DBD84EC80BF83E886B94B
:1017D0000895CF92DF92EF92FF920F931F93CF93D2
:1017E000DF936C01EB017B01E40EF51E10E000E0DD
:1017F000CE15DF0561F06991D601ED91FC91019064
:10180000F081E02DC6010995080F191FF1CFC8011D
:10181000DF91CF911F910F91FF90EF90DF90CF90CC
:101820000895FB0101900020E9F73197AF01461BB5
:10183000570BDC01ED91FC910280F381E02D0994BE
:10184000F0CFDC01ED91FC910190F081E02D099445
:101850008F929F92AF92BF92CF92DF92EF92FF92C0
:101860000F931F93CF93DF93CDB7DEB7A1970FB63A
:10187000F894DEBF0FBECDBF6C01142FE52FCB0156
:10188000022F19A2223008F40AE07E0121E2E20EC2
:10189000F11C802E912CB12CA12C612F7E2FA50143
:1018A0009401CCD0802F622F96D0181B1A300CF5E3
:1018B000105DF70112937F01122FE32FCA01232B32
:1018C000242B252B51F7B701C601ABDFA1960FB62C
:1018D000F894DEBF0FBECDBFDF91CF911F910F9166
:1018E000FF90EF90DF90CF90BF90AF909F908F9040
:1018F0000895195CDECFCF92DF92EF92FF920F93A3
:101900001F93CF93DF93EC016A017B012115310511
:1019100079F4E881F9810190F081E02D642FDF9165
:10192000CF911F910F91FF90EF90DF90CF9009948E
:101930002A303105F9F410E000E0F7FE0BC06DE24B
:1019400080DF8C01F094E094D094C094C11CD11C31
:10195000E11CF11C2AE0B701A601CE0179DF800F5E
:10196000911FDF91CF911F910F91FF90EF90DF902A
:10197000CF900895DF91CF911F910F91FF90EF903D
:10198000DF90CF9065CF2115310541F4DC01ED9159
:10199000FC910190F081E02D642F099459CFCF92F2
:1019A000DF92EF92FF926B017C01C114D104E1043C
:1019B000F10431F0D2D0A701960162D06B017C0115
:1019C000C701B601FF90EF90DF90CF900895F0DE51
:1019D0005BD7C9D7FECF002480FD060E660F11F03D
:1019E0008695D1F7802D08950024552704C0080E50
:1019F000591F880F991F009729F076956795B8F3BE
:101A00007105B9F7802D952F0895EE27FF27AA2796
:101A1000BB2708C0A20FB31FE41FF51F220F331FFF
:101A2000441F551F969587957795679598F3704055
:101A3000A9F7009799F7BD01CF010895A1E21A2EE9
:101A4000AA1BBB1BFD010DC0AA1FBB1FEE1FFF1F62
:101A5000A217B307E407F50720F0A21BB30BE40BB2
:101A6000F50B661F771F881F991F1A9469F76095F9
:101A70007095809590959B01AC01BD01CF010895B3
:101A8000052E97FB16F400940FD057FD05D0D6DF36
:101A900007FC02D046F408C050954095309521953A
:101AA0003F4F4F4F5F4F089590958095709561958A
:101AB0007F4F8F4F9F4F0895EE0FFF1F0590F491BA
:101AC000E02D09948F929F92AF92BF92CF92DF92B6
:101AD000EF92FF92CF93DF93EC01688179818A8145
:101AE0009B81611571058105910521F464E279ED11
:101AF0008BE597E02DE133EF41E050E0C1DF490194
:101B00005A0127EA31E440E050E07FDF6B017C01BD
:101B10002CEE34EF4FEF5FEFC501B40176DFC60E58
:101B2000D71EE81EF91EF7FE06C081E0C81AD108CC
:101B3000E10880E8F80AC882D982EA82FB82C701FC
:101B4000B6019F77DF91CF91FF90EF90DF90CF901C
:101B5000BF90AF909F908F9008958F929F92AF9279
:101B6000BF92CF92DF92EF92FF92609160007091EE
:101B7000610080916200909163006115710581059B
:101B8000910521F464E279ED8BE597E02DE133EFE7
:101B900041E050E075DF49015A0127EA31E440E0B5
:101BA00050E033DF6B017C012CEE34EF4FEF5FEF41
:101BB000C501B4012ADFC60ED71EE81EF91EF7FEC6
:101BC00006C081E0C81AD108E10880E8F80AC0928E
:101BD0006000D0926100E0926200F0926300C70161
:101BE000B6019F77FF90EF90DF90CF90BF90AF90BE
:101BF0009F908F9008956093600070936100809330
:0C1C00006200909363000895F894FFCFF9
:101C0C000100000040B00480202020202020202053
:101C1C002020202020202020002E00206850610051
:101C2C002043656C73697573001E000802207E00EA
:081C3C00000000DA06E90B00CC
:00000001FF
