:10000000F1C115C214C213C212C21ECA10C20FC25D
:100010000EC20DC20CC20BC2A9C309C208C20000A5
:1000200000000000000000000000000000000000D0
:1000300000000000000000000000000000000000C0
:100040000000000080808000000000000000000030
:1000500000000040E37F3F000000000000000000BF
:100060000000000000000000000000000000000090
:1000700000E0E0E0E0E0E0E0E0E0000000000000A0
:100080000000000000000000000000000000000070
:100090000000000000000000000000000000000060
:1000A0000000000000000000000000000000000050
:1000B0000000000000000000000000000000000040
:1000C0000000000000000000000000000000000030
:1000D00000000000E0E0E000000000000000000080
:1000E00000000000000080F8F87800000000000028
:1000F0000000000080F8FF7F070000000000000003
:10010000000080F8FF7F07000000000000000000F2
:1001100080F8FF7F070000000000000000000000E2
:10012000C0E0F07838383878F0E0C0000000F8FF20
:10013000FF070000000000000007FFFFF800FFFFBE
:10014000FF000000000000000000FFFFFF00000FA4
:100150001F3F78F0E0E0E0F0783F1F07000000006C
:100160000000000080C0F0F8F8000000000000006F
:10017000381C0E0F0703FFFFFF0000000000000007
:10018000000000000000FFFFFF0000000000000072
:10019000000000000000FFFFFF000000000000C0A2
:1001A000E0F070783838383878F0E0C000000E0F92
:1001B0000F0100000000000000C1FFFF3F00000031
:1001C000000080C0E0F0783E1F0F03010000E0F85F
:1001D000FEFFEFE7E1E0E0E0E0E0E0E0E00000C0AB
:1001E000E0F0783838383878F0E0C0800000030359
:1001F00003000000808080C0E0FF7F1F000000003F
:100200000000000003030303071FFEFCF000071FAC
:100210003F7C70E0E0E0E0F0707C3F1F03000000F6
:10022000000000000000C0F0F8F8F8000000000036
:100230000080E0F07C3F0F03FFFFFF000000E0F8CC
:10024000FEDFC7C1C0C0C0C0FFFFFFC0C0C001010A
:100250000101010101010101FFFFFF010101008016
:10026000F8F8783838383838383838380000C0FF6F
:10027000FFFFE070707070F0E0E0C08000000303EA
:1002800003010000000000000103FFFFFC00071F46
:100290003F7C70E0E0E0E0F0787E1F0F010000009E
:1002A000C0E0F0703838383878F0E0C00000F0FF77
:1002B000FF83C0C0E0E0E0E0C0C083030300FFFFB5
:1002C000FF070101000000010107FFFFFC00000F14
:1002D0001F3E78F0E0E0E0F0787C3F0F0300383814
:1002E000383838383838383838B8F8F83800000036
:1002F0000000000000C0F0FC3F0F03000000000001
:100300000000C0F8FF3F07000000000000000000F0
:1003100000F8FFFF07000000000000000000008060
:10032000E0F0F07838383878F0F0C0800000001F36
:100330007FFFE0C0808080C0E0FF7F1F0000F0FCF6
:10034000FE1E070303030307071EFCF8F000071F48
:100350003F7C70F0E0E0E0E0707C3F1F070000C0F1
:10036000E0F0F07838383878F0E0C0800000FEFF28
:10037000FF030000000000000001FFFFF80000077D
:100380000F1F1C3C3838381C1C0FFFFF7F00061E57
:100390007E78F0E0E0E0E070783E1F0700000000AB
:1003A00000000000383838000000000000000000A5
:1003B000000000000000000000000000000000003D
:1003C00000000000E0E0E00000000000000000008D
:1003D0000000000000000000000000000000C8A1B4
:1003E0008D14C50311241FBECFE5D2E0DEBFCDBF03
:1003F00010E0A0E6B0E0EEE7F8E102C005900D9253
:10040000A437B107D9F720E0A4E7B0E001C01D92FE
:10041000AD3EB207E1F711E0C2EFD1E003C0219792
:10042000FE0125DAC13FD107D1F7ACD926CAE8CD04
:100430008EEB90E0EEC1682F8EEB90E0C3D121E00F
:10044000892B09F420E0822F08956CE38EEB90E075
:10045000B3D181E008958EEB90E0ADD1F6DFE8DF17
:10046000882331F06AE070E080E090E06AD8F6CF4F
:1004700008958F929F92AF92BF92CF92DF92EF92A8
:10048000FF920F931F93FA01C080D180E280F38026
:100490004B015C018C189D08AE08BF087501640112
:1004A000C016D106E206F30680F060837183828372
:1004B000938381E01F910F91FF90EF90DF90CF9099
:1004C000BF90AF909F908F90089580E0F3CFCF9230
:1004D000DF92EF92FF9240E060E08AEB90E035D34C
:1004E000609178007091790080917A0090917B0002
:1004F00024E6C22ED12CE12CF12CA70196019BD928
:10050000BA01A9012AE030E08AEB90E0E7D864E67E
:1005100070E08AEB90E087D8609178007091790064
:1005200080917A0090917B00A701960184D9AB015C
:10053000BC012AE030E08AEB90E0D0D88AEB90E072
:1005400000D440E060E08AEB90E0FFD2609174005C
:10055000709175008091760090917700A7019601C7
:1005600048D9BA01A9012AE030E08AEB90E0FED830
:1005700064E670E08AEB90E056D860917400709168
:1005800075008091760090917700A701960131D98E
:10059000AB01BC012AE030E08AEB90E0E7D88AEBBF
:1005A00090E0CFD38AEB90E0D3D38AEB90E0D0D326
:1005B00064E670E080E090E0FF90EF90DF90CF90F5
:1005C000C0C7CF92DF92EF92FF920F931F9386D70F
:1005D00060938400709385008093860090938700D9
:1005E00000E61AEE20E030E040E850E042DFC09044
:1005F0008400D0908500E0908600F090870000E4B1
:100600001FE120E030E04CE750E08823C9F1C7014A
:10061000B6012FDF8823E1F088E890E0ECD360E0BA
:1006200088E890E088D5609374007093750080939B
:1006300076009093770060E088E890E031D4609392
:1006400078007093790080937A0090937B000CC0BF
:1006500061E088E890E06FD5609374007093750056
:10066000809376009093770032DF64EF71E080E052
:1006700090E01F910F91FF90EF90DF90CF9061C7B6
:10068000C701B601F6DE882381F361E0D5CF0F9371
:100690001F9324D760938000709381008093820021
:1006A0009093830060937C0070937D0080937E0024
:1006B00090937F008EEB90E07ED00EED13E024E06F
:1006C00040E460E88AEB90E01FD264EF71E080E0E4
:1006D00090E037D766E670E08AEB90E031D28AEBA3
:1006E00090E02DD38AEB90E02CD366E48AEB90E087
:1006F00036D38AEB90E035D388E890E00BD588E8D4
:1007000090E079D360E088E890E015D560937400BC
:1007100070937500809376009093770060E088E88E
:1007200090E0BED3609378007093790080937A0054
:1007300090937B00CCDE3798A89588E199E20FB6BC
:10074000F894A89581BD0FBE91BD81B5806481BD2F
:10075000789485B7877E806185BF1F910F9108953A
:1007600030DF85B7806285BF889508951F920F920C
:100770000FB60F9211248F9381B5806481BD8F9144
:100780000F900FBE0F901F9018950F931F9308E1C5
:1007900012E02BE132E045E252E06BE272E08AEBDC
:1007A00090E069D120E046E76EEB70E088E890E0E9
:1007B0001F910F9197C44FC01092C100660F6093B4
:1007C000C2000895E091C100E13150F4EF5FE09381
:1007D000C100F0E0EE53FF4F608381E090E00895A8
:1007E00090E080E00895CF93C62F6091C1006F5FC5
:1007F00082EC90E0DBD01092C100882329F0CC235A
:1008000029F0D7D0811102C0CF9130C080E0CF91C4
:10081000089561E0E8CF1092C0004093BF00660FDA
:1008200061606093C20061E0640F82EC90E0BED032
:10083000882319F0BED0811101C018C080E008954E
:10084000E091C000EF5FE093C000F0E0EE53FF4F97
:10085000808190E00895C09AC29ABA9AB89A8FEFB0
:100860008FB98AE28DB980EF8EB908958091D40056
:1008700008958EB98BE200C000C000008DB9B29B14
:10088000FECF00C000C08DB9769BF5CF00C000C080
:1008900000008FB19FEF9FB9B89A0895C29AC29B8A
:1008A000FECF00C000C00000C09800C000C0C298C9
:1008B000C09A779905C083E08093D40080E00895C2
:1008C00081E00895AF92BF92CF92DF92EF92FF92B4
:1008D0000F931F93CF93DF938C01E62E8091D4006A
:1008E00081608093D400F801908190FD03C0826004
:1008F0008093D400D3DF882311F1FE2CE801BB24C0
:10090000BA94AA24A3946E01FFEFCF1ADF0A809154
:10091000D4008370D9F1C29888818FB980EFA9DFA4
:10092000B8988EEFA6DF9091D40080FF17C0892F72
:10093000817090FF0FC081E08093D40080E0DF9150
:10094000CF911F910F91FF90EF90DF90CF90BF90CC
:10095000AF90089592E09093D400F1CF892F8570E5
:10096000843059F4F801808181608083A092D400A2
:1009700095DF811118C09AE0EECF9E7F9093D4004E
:10098000E601FA94F110BFCF81E0D9CFB89880EF9B
:1009900070DF8883F1E0FF1204C0BFB88EEF69DF1B
:1009A000EFCF1FB8FBCFFE2CE801EBCF1092D400A5
:1009B00089CFC098C29AB29BFECF00C000C0C09A37
:1009C00000C000C000009EB1892F807295FD04C058
:1009D00094E09093D400089581E00895E091D700C9
:1009E000F091D8000994E091D500F091D6000994D7
:1009F000E091D900F091DA00099580E4EFCFCF9330
:100A0000C82F8091DD008C27E9DF811107C0EBDF63
:100A1000EFDF8091DD008C27CF91E0CFCF9108955B
:100A2000E091D900F091DA00099580E0D7CFCF931B
:100A3000C82FF6DF8C2FD2DFCF91D5CFCF93DF93A6
:100A4000D82FC62FEDDF8D2FC9DF8C2FC7DFDF91A9
:100A5000CF91C9CF1F93CF93DF93182FD62FC42FD9
:100A6000DFDF812FBBDF8D2FB9DF8C2FB7DFDF9169
:100A7000CF911F91B8CF0F931F93DC0113961C9257
:100A80001E921297E0E7F0E0ED93FC937093DC0088
:100A90006093DB005093DA004093D9003093D80084
:100AA0002093D7001093D6000093D5001F910F918B
:100AB0000895CF92DF92EF92FF921F93CF93DF932F
:100AC000E62E6A01E091DB00F091DC000995A8DFD9
:100AD000F12CD0E0C0E0CE15DF0571F0F601EC0F8F
:100AE000FD1F1491812F7ADF811104C07CDF98DF14
:100AF000812F74DF2196EFCFDF91CF911F91FF906F
:100B0000EF90DF90CF906FCF0F931F93E42FA8014A
:100B1000A0E8B0E0A61BB109B595A795A093E300A6
:100B20001092E20060936300F0E063E0F595E795D2
:100B30006A95E1F7E0936200622F1F910F91B9CFA0
:100B40007093E1006093E0000895CF93DF93D62F78
:100B5000C42F6091E3006D0F462F4F7062956F7048
:100B600060618091E2008C0F877090916100892B09
:100B700071DFD093DF00C093DE00DF91CF91089545
:100B8000FC012091DE00260F2093DE009091620090
:100B9000A92FA61BBB0B2A171B0621F01CF0961BC6
:100BA0009093DE004091DE0060E0CF01CECF8F92C7
:100BB0009F92BF92CF92DF92EF92FF920F931F937B
:100BC000CF93DF93E091E000F091E100309749F09E
:100BD0006D3039F0D62F8C01C3816A3081F46C2FCF
:100BE000CFDF81E090E0DF91CF911F910F91FF90D7
:100BF000EF90DF90CF90BF909F908F900895B2803C
:100C00002091DF008091630090E0CB2CD12C8C19D7
:100C10009D092817190621F01CF06C2FC801B0DFC0
:100C2000E091E000F091E10024818C2F90E0B6018A
:100C3000B6D5BC014D2F421B550BCA01B0D57C0166
:100C4000DC2FD6DEC701282F2E192B1588F44C0176
:100C50005FEF851A950AE091E000F091E1000190C4
:100C6000F081E02DE80FF91F8491C9DEC401EBCFBC
:100C7000EC0CFD1CB8DE6091DF00C13031F46B0D6F
:100C80006093DF00D150E9F6ACCF4091DE004F5FBA
:100C9000D23018F0C80159DFF5CF4C1B6B0DFACFDD
:100CA0001F93CF93DF93D62F142FC0E0C11721F0ED
:100CB0008D2FA5DECF5FFACFDF91CF911F910895E1
:100CC0000F931F93CF93DF93442391F0C42FD62F1C
:100CD0008C018091DF00840F8093DF0089DE4C2F30
:100CE0006D2FC801DDDFDF91CF911F910F917BCE7A
:100CF000DF91CF911F910F91089540916300209152
:100D0000DF00421BDDCF0F931F93CF93DF938C0146
:100D1000D62FC0E080916200C81748F44C2F60E0E5
:100D2000C80113DF6D2FC801E8DFCF5FF3CF40E0CC
:100D300060E0C801DF91CF911F910F9106CF60E075
:100D4000E2CF8091610094E089278093610008954B
:100D50008091600090E289278093600068CE81E8EE
:100D60006DCE8FEA64CE1F93CF93DF93EC01888121
:100D7000998166DD182F8881998162DD20E0382F06
:100D8000C901812BDF91CF911F9108950F931F937C
:100D9000CF93DF93EC018881998152DD182F8881F0
:100DA00099814EDD082F888199814ADD412F50E0DD
:100DB00070E060E09CE0440F551F661F771F9A9516
:100DC000D1F710E030E020E0E4E0000F111F221F17
:100DD000331FEA95D1F7402B512B622B732B829551
:100DE0008F708A019B01082BC901B801DF91CF9157
:100DF0001F910F910895CF93DF93EC016A81888151
:100E00009981DADC64EF88819981DCDC65E2888194
:100E10009981D8DC88819981FCDC68EC70E080E005
:100E200090E0DF91CF918DC3CF93DF93EC016A8186
:100E300088819981C1DC60ED88819981C3DC8881DA
:100E40009981E7DC41E06A8188819981E4DC8881CD
:100E50009981F6DC8B836A8188819981ADDC8B81F5
:100E6000803641F462EF88819981ACDC61E0888151
:100E70009981A8DC64EF88819981A4DC65E288818E
:100E80009981A0DC68E8888199819CDC88819981BE
:100E9000C0DC68EC70E080E090E0DF91CF9151C35E
:100EA0004F925F926F927F928F929F92AF92BF927A
:100EB000CF92DF92EF92FF92CF93DF93EC01F62E69
:100EC0006A818881998178DCFF2069F064EF8881EC
:100ED000998178DC61E28881998174DC68EC70E04A
:100EE00080E090E02ED36AEF888199816BDC888165
:100EF00099818FDC43E06A81888199818CDCCE0105
:100F000045DF4B015C014E805F80712C612C24E039
:100F100095958795779567952A95D1F76419750901
:100F2000860997099B01AC014BD43CE095958795C8
:100F3000779567953A95D1F72A853B85032E000C66
:100F4000440B550B3DD46B017C0143E0B594A79451
:100F5000979487944A95D1F7440C551C661C771CCE
:100F6000C501B40164197509860997092885398571
:100F7000032E000C440B550B23D4EBE0959587957D
:100F800077956795EA95D1F7FEE0F594E794D794C5
:100F9000C794FA95D1F76C0D7D1D8E1D9F1D6EA710
:100FA0007FA788AB99AB25E030E040E050E008D463
:100FB00060587F4F8F4F9F4F672F782F892F99272A
:100FC00087FD9A95DF91CF91FF90EF90DF90CF90C2
:100FD000BF90AF909F908F907F906F905F904F9059
:100FE0000895EF92FF920F931F93CF93DF93EC013D
:100FF0004AE16A81888199810EDCCE01B4DE9F834B
:101000008E83CE01B0DE99878887CE01ACDE9B87C8
:101010008A878E01025F1F4F7E0180E2E80EF11C7D
:10102000CE01A1DEF801819391938F01EE16FF06A8
:10103000B9F78881998104DC8881998101DC99273D
:101040009BA38AA36A8188819981B6DB61EE88813E
:101050009981B8DB88819981DCDB47E06A818881EE
:101060009981D9DBCE017FDE9DA38CA388819981F4
:10107000E7DB99279FA38EA388819981E1DB8C010F
:1010800088819981DDDB7C0184E0000F111F8A9546
:10109000E1F7007F1F70C7018F709927082B192B6C
:1010A00019A708A788819981CBDB24E0880F991FB5
:1010B0002A95E1F7E2943FE0E3228E0D911D9BA774
:1010C0008AA788819981BCDB082E000C990B9DA70B
:1010D0008CA760E0CE01DF91CF911F910F91FF901F
:1010E000EF90DECECF93DF93EC01798368834A8360
:1010F000222369F0CB015FDB62E070E080E090E0EA
:1011000020D2CE0191DECE01DF91CF916ACFDF9167
:10111000CF910895CF93DF93EC01888199814BDBC8
:1011200062E070E080E090E00CD2CE017DDECE0186
:10113000DF91CF9156CF4F925F926F927F928F92B5
:101140009F92AF92BF92CF92DF92EF92FF92CF9396
:10115000DF9300D000D000D0CDB7DEB79E838D8363
:10116000F62EFC0162818081918126DBFF2089F0CF
:1011700064EFED81FE818081918124DB65E2ED8168
:10118000FE81808191811EDB68EC70E080E090E060
:10119000D8D167EFED81FE818081918113DBED81F4
:1011A000FE818081918135DB43E0ED81FE816281AA
:1011B0008081918130DB8D819E81E8DD69837A8336
:1011C0008B839C83ED81FE81C6A4D7A4E0A8F1A8FF
:1011D000F594E794D794C794FAEFDF1AE108F10881
:1011E000C701B601A2E09595879577956795AA9571
:1011F000D1F79B01AC01E4D22B013C01ED81FE81D2
:1012000062897389072E000C880B990BA301920148
:10121000BDE05595479537952795BA95D1F7D0D22A
:101220004B015C0183E0B594A794979487948A95C9
:10123000D1F7ED81FE8160897189072E000C880B42
:10124000990BA7019601BCD29595879577956795DF
:10125000680D791D8A1D9B1D32E1959587957795BF
:1012600067953A95D1F770588F4F9F4FED81FE816A
:101270002685378550E040E0A3D24B015C014FE06A
:10128000B594A794979487944A95D1F760E070E05D
:10129000CB0181149104A104B10409F4B6C0C301C7
:1012A000B2012BE095958795779567952A95D1F7AB
:1012B000ED81FE81208D318D032E000C440B550BEA
:1012C0007FD22B013C01ED81FE8166897789072E53
:1012D000000C880B990BA701960172D2660F771F3D
:1012E000881F991F460E571E681E791E42E075948E
:1012F0006794579447944A95D1F7ED81FE8184898C
:101300009589092E000CAA0BBB0B77276627640D65
:10131000751D861D971DECE09595879577956795CA
:10132000EA95D1F729813A814B815C81620F731F65
:10133000841F951F2BEC33EF4FEF5FEF41D2805BA3
:101340009C4397FD77C0660F771F881F991FA501E3
:1013500094014FD249015A01C501B40123E0969589
:101360008795779567952A95D1F79B01AC0128D28F
:101370003DE096958795779567953A95D1F7ED81FC
:10138000FE81268D378D032E000C440B550B18D291
:101390006B017C014CE0F594E794D794C7944A958F
:1013A000D1F7C501B40152E0969587957795679579
:1013B0005A95D1F7ED81FE81248D358D032E000CD9
:1013C000440B550BFDD1EDE0959587957795679585
:1013D000EA95D1F76C0D7D1D8E1D9F1DED81FE815F
:1013E000C28CD38C0D2C000CEE08FF086C0D7D1DFB
:1013F0008E1D9F1DF4E09595879577956795FA95D5
:10140000D1F7680D791D8A1D9B1D26960FB6F8949D
:10141000DEBF0FBECDBFDF91CF91FF90EF90DF9089
:10142000CF90BF90AF909F908F907F906F905F9084
:101430004F900895A5019401DCD149015A01880C0F
:10144000991CAA1CBB1C88CF1F920F920FB60F923B
:1014500011242F933F938F939F93AF93BF938091CA
:10146000E5009091E600A091E700B091E80030918E
:10147000E40026E0230F2D3768F129E8230F0396B7
:10148000A11DB11D2093E4008093E5009093E60038
:10149000A093E700B093E8008091E9009091EA0002
:1014A000A091EB00B091EC000196A11DB11D8093BD
:1014B000E9009093EA00A093EB00B093EC00BF9199
:1014C000AF919F918F913F912F910F900FBE0F90F1
:1014D0001F9018950296A11DB11DD4CF2FB7F89477
:1014E0006091E5007091E6008091E7009091E8003E
:1014F0002FBF08953FB7F8948091E9009091EA00DA
:10150000A091EB00B091EC0022B708B601FE05C037
:101510002F3F19F00196A11DB11D3FBFBA2FA92F72
:10152000982F8827BC01CD01620F711D811D911D6F
:1015300043E0660F771F881F991F4A95D1F70895DA
:101540000895CF92DF92EF92FF92CF93DF936B01DA
:101550007C01D0DFEB01C114D104E104F10461F09E
:10156000EFDFC8DF6C1B7D0B683E7340A0F3C11436
:10157000D104E104F10439F4DF91CF91FF90EF90B1
:10158000DF90CF90089581E0C81AD108E108F108F2
:10159000C851DC4FE6CF83E08ABD82E083BF7894F8
:1015A00089B7826089BF80E48CBD8FEF8DBD84ECEC
:1015B00080BF83E886B90895CF92DF92EF92FF92C1
:1015C0000F931F93CF93DF936C01EB017B01E40E2C
:1015D000F51E10E000E0CE15DF0561F06991D6013F
:1015E000ED91FC910190F081E02DC6010995080F65
:1015F000191FF1CFC801DF91CF911F910F91FF907B
:10160000EF90DF90CF900895FB0101900020E9F763
:101610003197AF01461B570BDC01ED91FC91028025
:10162000F381E02D0994F0CFDC01ED91FC91019064
:10163000F081E02D09948F929F92AF92BF92CF924A
:10164000DF92EF92FF920F931F93CF93DF93CDB76B
:10165000DEB7A1970FB6F894DEBF0FBECDBF6C0109
:10166000142FE52FCB01022F19A2223008F40AE033
:101670007E0121E2E20EF11C802E912CB12CA12CD6
:10168000612F7E2FA5019401B4D0802F622F7ED0D0
:10169000181B1A300CF5105DF70112937F01122F01
:1016A000E32FCA01232B242B252B51F7B701C601A9
:1016B000ABDFA1960FB6F894DEBF0FBECDBFDF91B2
:1016C000CF911F910F91FF90EF90DF90CF90BF903F
:1016D000AF909F908F900895195CDECFCF92DF92EC
:1016E000EF92FF920F931F93CF93DF93EC016A0168
:1016F0007B012115310579F4E881F9810190F081B0
:10170000E02D642FDF91CF911F910F91FF90EF900B
:10171000DF90CF9009942A303105F9F410E000E011
:10172000F7FE0BC06DE280DF8C01F094E094D09462
:10173000C094C11CD11CE11CF11C2AE0B701A60118
:10174000CE0179DF800F911FDF91CF911F910F9113
:10175000FF90EF90DF90CF900895DF91CF911F9190
:101760000F91FF90EF90DF90CF9065CF211531055D
:1017700041F4DC01ED91FC910190F081E02D642FAA
:10178000099459CF08DF83D7EBD7FECF002480FD23
:10179000060E660F11F08695D1F7802D089500246E
:1017A000552704C0080E591F880F991F009729F06C
:1017B00076956795B8F37105B9F7802D952F089543
:1017C000EE27FF27AA27BB2708C0A20FB31FE41FDD
:1017D000F51F220F331F441F551F96958795779548
:1017E000679598F37040A9F7009799F7BD01CF016D
:1017F0000895A1E21A2EAA1BBB1BFD010DC0AA1F52
:10180000BB1FEE1FFF1FA217B307E407F50720F069
:10181000A21BB30BE40BF50B661F771F881F991FE4
:101820001A9469F760957095809590959B01AC012D
:10183000BD01CF010895052E97FB16F400940FD03B
:1018400057FD05D0D6DF07FC02D046F408C05095FE
:101850004095309521953F4F4F4F5F4F089590959C
:101860008095709561957F4F8F4F9F4F0895EE0F34
:0E187000FF1F0590F491E02D0994F894FFCF2E
:10187E0040B004802E001E0010042C3A0000000020
:04188E00D705DC0A94
:00000001FF
