:10000000F1C115C214C213C212C2B9CA10C20FC2C2
:100010000EC20DC20CC20BC252C309C208C20000FC
:1000200000000000000000000000000000000000D0
:1000300000000000000000000000000000000000C0
:100040000000000080808000000000000000000030
:1000500000000040E37F3F000000000000000000BF
:100060000000000000000000000000000000000090
:1000700000E0E0E0E0E0E0E0E0E0000000000000A0
:100080000000000000000000000000000000000070
:100090000000000000000000000000000000000060
:1000A0000000000000000000000000000000000050
:1000B0000000000000000000000000000000000040
:1000C0000000000000000000000000000000000030
:1000D00000000000E0E0E000000000000000000080
:1000E00000000000000080F8F87800000000000028
:1000F0000000000080F8FF7F070000000000000003
:10010000000080F8FF7F07000000000000000000F2
:1001100080F8FF7F070000000000000000000000E2
:10012000C0E0F07838383878F0E0C0000000F8FF20
:10013000FF070000000000000007FFFFF800FFFFBE
:10014000FF000000000000000000FFFFFF00000FA4
:100150001F3F78F0E0E0E0F0783F1F07000000006C
:100160000000000080C0F0F8F8000000000000006F
:10017000381C0E0F0703FFFFFF0000000000000007
:10018000000000000000FFFFFF0000000000000072
:10019000000000000000FFFFFF000000000000C0A2
:1001A000E0F070783838383878F0E0C000000E0F92
:1001B0000F0100000000000000C1FFFF3F00000031
:1001C000000080C0E0F0783E1F0F03010000E0F85F
:1001D000FEFFEFE7E1E0E0E0E0E0E0E0E00000C0AB
:1001E000E0F0783838383878F0E0C0800000030359
:1001F00003000000808080C0E0FF7F1F000000003F
:100200000000000003030303071FFEFCF000071FAC
:100210003F7C70E0E0E0E0F0707C3F1F03000000F6
:10022000000000000000C0F0F8F8F8000000000036
:100230000080E0F07C3F0F03FFFFFF000000E0F8CC
:10024000FEDFC7C1C0C0C0C0FFFFFFC0C0C001010A
:100250000101010101010101FFFFFF010101008016
:10026000F8F8783838383838383838380000C0FF6F
:10027000FFFFE070707070F0E0E0C08000000303EA
:1002800003010000000000000103FFFFFC00071F46
:100290003F7C70E0E0E0E0F0787E1F0F010000009E
:1002A000C0E0F0703838383878F0E0C00000F0FF77
:1002B000FF83C0C0E0E0E0E0C0C083030300FFFFB5
:1002C000FF070101000000010107FFFFFC00000F14
:1002D0001F3E78F0E0E0E0F0787C3F0F0300383814
:1002E000383838383838383838B8F8F83800000036
:1002F0000000000000C0F0FC3F0F03000000000001
:100300000000C0F8FF3F07000000000000000000F0
:1003100000F8FFFF07000000000000000000008060
:10032000E0F0F07838383878F0F0C0800000001F36
:100330007FFFE0C0808080C0E0FF7F1F0000F0FCF6
:10034000FE1E070303030307071EFCF8F000071F48
:100350003F7C70F0E0E0E0E0707C3F1F070000C0F1
:10036000E0F0F07838383878F0E0C0800000FEFF28
:10037000FF030000000000000001FFFFF80000077D
:100380000F1F1C3C3838381C1C0FFFFF7F00061E57
:100390007E78F0E0E0E0E070783E1F0700000000AB
:1003A00000000000383838000000000000000000A5
:1003B000000000000000000000000000000000003D
:1003C00000000000E0E0E00000000000000000008D
:1003D0000000000000000000000000000000C8A1B4
:1003E0008D146E0311241FBECFE5D2E0DEBFCDBF5A
:1003F00010E0A0E6B0E0EEEBF9E102C005900D924E
:10040000A238B107D9F721E0A2E8B0E001C01D92FF
:10041000A930B207E1F711E0C2EFD1E003C02197A4
:10042000FE01C1DAC13FD107D1F748DAC6CAE8CD2B
:100430008EEC90E0A6C1682F8EEC90E07BD121E09D
:10044000892B09F420E0822F08956CE38EEC90E074
:100450006BD181E008958EEC90E065D1F6DFE8DFA6
:10046000882331F06AE070E080E090E005D9F6CFB3
:1004700008950FC4CF92DF92EF92FF9240E060E0C8
:100480008AEC90E0A3D360918800709189008091FC
:100490008A0090918B0024E6C22ED12CE12CF12C05
:1004A000A701960164DABA01A9012AE030E08AECDA
:1004B00090E0AFD964E670E08AEC90E04FD96091AB
:1004C00088007091890080918A0090918B00A7012B
:1004D00096014DDAAB01BC012AE030E08AEC90E0F5
:1004E00098D98AEC90E0BED440E060E08AEC90E0DD
:1004F0006DD3609184007091850080918600909109
:100500008700A701960111DABA01A9012AE030E0BB
:100510008AEC90E0C6D964E670E08AEC90E01ED9DF
:100520006091840070918500809186009091870091
:10053000A7019601FAD9AB01BC012AE030E08AECB0
:1005400090E0AFD98AEC90E08DD48AEC90E091D421
:100550008AEC90E08ED464E670E080E090E0FF905A
:10056000EF90DF90CF9088C854D860939400709338
:1005700095008093960090939700809182009091CF
:10058000830061E0892B81F488E990E0C5D460E0C4
:1005900088E990E061D66093840070938500809331
:1005A00086009093870060E088E990E00AD5609328
:1005B00088007093890080938A0090938B008091CB
:1005C0008200909183000196877099279093830011
:1005D000809382004FDF64EF71E080E090E04CC8D0
:1005E0000F931F9316D8609390007093910080939F
:1005F00092009093930060938C0070938D00809391
:100600008E0090938F008EEC90E08DD00EED13E075
:1006100024E040E460E88AEC90E035D264EF71E0D9
:1006200080E090E029D86EE670E08AEC90E056D247
:100630008AEC90E015D48AEC90E014D466E48AEC5D
:1006400090E01ED48AEC90E01DD488E990E0F3D5C8
:1006500088E990E061D460E088E990E0FDD560939E
:10066000840070938500809386009093870060E0FB
:1006700088E990E0A6D46093880070938900809305
:100680008A0090938B00F6DE3798A89588E199E26E
:100690000FB6F894A89581BD0FBE91BD81B5806459
:1006A00081BD789485B7877E806185BF1F910F914A
:1006B00008955ADF85B7806285BF889508951F9297
:1006C0000F920FB60F9211248F9381B5806481BD74
:1006D0008F910F900FBE0F901F9018950F931F933F
:1006E000CF93DF93CAECD0E08DE790E099838883C5
:1006F0001B821A8208E112E02BE132E045E252E06F
:100700006BE272E0CE017FD18AE690E09983888324
:1007100020E046E76EEC70E088E990E0DF91CF9151
:100720001F910F9170C54FC01092D100660F60935A
:10073000D2000895E091D100E13150F4EF5FE093F1
:10074000D100F0E0EE52FF4F608381E090E0089529
:1007500090E080E00895CF93C62F6091D1006F5F45
:1007600082ED90E0DBD01092D100882329F0CC23D9
:1007700029F0D7D0811102C0CF9130C080E0CF9155
:10078000089561E0E8CF1092D0004093CF00660F4B
:1007900061606093D20061E0640F82ED90E0BED0B2
:1007A000882319F0BED0811101C018C080E00895DF
:1007B000E091D000EF5FE093D000F0E0EE52FF4F09
:1007C000808190E00895C09AC29ABA9AB89A8FEF41
:1007D0008FB98AE28DB980EF8EB908958091E400D7
:1007E00008958EB98BE200C000C000008DB9B29BA5
:1007F000FECF00C000C08DB9769BF5CF00C000C011
:1008000000008FB19FEF9FB9B89A0895C29AC29B1A
:10081000FECF00C000C00000C09800C000C0C29859
:10082000C09A779905C083E08093E40080E0089542
:1008300081E00895AF92BF92CF92DF92EF92FF9244
:100840000F931F93CF93DF938C01E62E8091E400EA
:1008500081608093E400F801908190FD03C0826084
:100860008093E400D3DF882311F1FE2CE801BB2440
:10087000BA94AA24A3946E01FFEFCF1ADF0A8091E5
:10088000E4008370D9F1C29888818FB980EFA9DF25
:10089000B8988EEFA6DF9091E40080FF17C0892FF3
:1008A000817090FF0FC081E08093E40080E0DF91D1
:1008B000CF911F910F91FF90EF90DF90CF90BF905D
:1008C000AF90089592E09093E400F1CF892F857066
:1008D000843059F4F801808181608083A092E40023
:1008E00095DF811118C09AE0EECF9E7F9093E400CF
:1008F000E601FA94F110BFCF81E0D9CFB89880EF2C
:1009000070DF8883F1E0FF1204C0BFB88EEF69DFAB
:10091000EFCF1FB8FBCFFE2CE801EBCF1092E40025
:1009200089CFC098C29AB29BFECF00C000C0C09AC7
:1009300000C000C000009EB1892F807295FD04C0E8
:1009400094E09093E400089581E00895E091F2002E
:10095000F091F3000994E091F000F091F100099416
:10096000E091F400F091F500099580E4EFCFCF938A
:10097000C82FE091E600F091E700309751F0909198
:10098000FB008091E5004C2F6091FA00890F0995DA
:10099000C82F8C2FDBDF811104C0DDDFE1DF8C2F5E
:1009A000D5DF8091E5008F5F8093E500CF910895BA
:1009B000E091F400F091F500099580E0C7CFCF9366
:1009C000C82FF6DF8C2FC2DFCF91C5CFCF93DF9337
:1009D000D82FC62FEDDF8D2FB9DF8C2FB7DFDF913A
:1009E000CF91B9CF1F93CF93DF93182FD62FC42F5A
:1009F000DFDF812FABDF8D2FA9DF8C2FA7DFDF910A
:100A0000CF911F91A8CF0F931F937093F70060931E
:100A1000F6005093F5004093F4003093F3002093D8
:100A2000F2001093F1000093F0001F910F910895D0
:100A3000CF92DF92EF92FF921F93CF93DF93E62E38
:100A40006A01E091F600F091F7000995B1DFF12C11
:100A5000D0E0C0E0CE15DF0571F0F601EC0FFD1F10
:100A60001491812F73DF811104C075DFA1DF812F05
:100A70006DDF2196EFCFDF91CF911F91FF90EF9027
:100A8000DF90CF9068CF0F931F93E42FA801A0E8C9
:100A9000B0E0A61BB109B595A795A093FF001092F1
:100AA000FE0060936300F0E063E0F595E7956A95DA
:100AB000E1F7E0936200622F1F910F91B9CF70931D
:100AC000FD006093FC00FB018281811104C08285DE
:100AD0008093F80008951092F8000895F0DFECEE8E
:100AE000F0E080E296E09183808313821282E8EE48
:100AF000F0E08BE796E0918380831382128210925C
:100B0000F90008950F931F93CF93DF93A091FC00FA
:100B1000B091FD0014968C911497462F481B550BED
:100B20009A0171F012968C91129713966C9113970B
:100B300070E0882359F090E0CED6B901CCD69C0164
:100B4000C901DF91CF911F910F910895EA01F4E05F
:100B5000D695C795FA95E1F790E080E050E040E047
:100B60008C179D0779F08C01000F111F1696ED91DF
:100B7000FC911797E00FF11F05911491400F511F41
:100B80000196EECFC901807F8217930758F418961B
:100B9000ED91FC911997E80FF91FE4914E0F511D4B
:100BA0000196F2CFCB01BA01C9CFE091FC00F091E0
:100BB000FD008281811109C08481681B770B00844C
:100BC000F185E02DE60FF71F84910895CF93DF9311
:100BD000D62FC42F6091FF006D0F462F4F70629586
:100BE0006F7060618091FE008C0F87709091610042
:100BF000892BF8DED093FB00C093FA001092E50039
:100C0000DF91CF910895FC018091F90001C0660F3A
:100C10008A95EAF72091FA00260F2093FA00909126
:100C20006200A92FA61BBB0B2A171B0621F01CF084
:100C3000961B9093FA004091FA0060E0CF01C6CF76
:100C40006D3031F1E091FC00F091FD006A3011F45B
:100C50006381D9CF24816217D8F025812617C0F08F
:100C60002091EA003091EB00A90155954795840F3A
:100C7000951FE091E800F091E90020FF08C0DC0139
:100C80002D913C91E20FF31F0190F081E02D09942A
:100C90000895E091EC00F091ED002091EE0030918C
:100CA000EF00A90141705527309719F441155105FE
:100CB00079F035952795820F931F452B41F0DC0184
:100CC0002D913C91E20FF31F0190F081E02D0995E9
:100CD00081E090E008951F93CF93DF93D62F142FD8
:100CE000C0E0C11721F08D2F42DECF5FFACFDF9138
:100CF000CF911F9108958F929F92AF92BF92CF9202
:100D0000DF92EF92FF920F931F93CF93DF93EC014B
:100D1000162F4BDFB82EE091FC00F091FD00A38070
:100D2000C090F800E82EF12C2091FB008091630028
:100D300090E08E199F092817190621F01CF06A2DE2
:100D4000CE0161DF8091FB008E0D9F2D911D8C0DDA
:100D5000911D20916300281719060CF4C12C612FF6
:100D6000CE01D0DE8C01DA2CFBDDC801282F201B40
:100D70002B1588F44C012FEF821A920AE091FC00A7
:100D8000F091FD000190F081E02DE80FF91F8491B2
:100D9000EEDDC401EBCF0E0D1F1D4C2D60E0CE012A
:100DA0009ADFD9DD4091FA0081E04F5F6091FB004E
:100DB0008D1528F04A196091FB006B0D6C0DCE016A
:100DC00005DFDA94D110D0CFDF91CF911F910F9131
:100DD000FF90EF90DF90CF90BF90AF909F908F905B
:100DE00008950F931F93CF93DF93442391F0C42F63
:100DF000D62F8C018091FB00840F8093FB00B0DD27
:100E00004C2F6D2FC80167DFDF91CF911F910F919C
:100E1000A2CDDF91CF911F910F9108954091630072
:100E20002091FB00421BDDCF0F931F93CF93DF93E5
:100E30008C01D62FC0E080916200C81748F44C2F77
:100E400060E0C801C3DE6D2FC801E8DFCF5FF3CFDC
:100E500040E060E0C801DF91CF911F910F91B6CEC5
:100E600060E0E2CF8091610094E089278093610087
:100E700008958091600090E28927809360009FCD63
:100E800081E8A4CD8FEA9BCD1F93CF93DF93EC0134
:100E9000888199818DDC182F8881998189DC20E0F7
:100EA000382FC901812BDF91CF911F9108950F93A6
:100EB0001F93CF93DF93EC018881998179DC182F00
:100EC0008881998175DC082F8881998171DC412F97
:100ED00050E070E060E09CE0440F551F661F771FF4
:100EE0009A95D1F710E030E020E0E4E0000F111F08
:100EF000221F331FEA95D1F7402B512B622B732B06
:100F000082958F708A019B01082BC901B801DF917E
:100F1000CF911F910F910895CF93DF93EC016A81D8
:100F20008881998101DC64EF8881998103DC65E225
:100F300088819981FFDB8881998123DC68EC70E0EE
:100F400080E090E0DF91CF9197C3CF93DF93EC01E6
:100F50006A8188819981E8DB60ED88819981EADB8B
:100F6000888199810EDC41E06A81888199810BDC5E
:100F7000888199811DDC8B836A8188819981D4DB8A
:100F80008B81803641F462EF88819981D3DB61E007
:100F900088819981CFDB64EF88819981CBDB65E221
:100FA00088819981C7DB68E888819981C3DB888162
:100FB0009981E7DB68EC70E080E090E0DF91CF9111
:100FC0005BC34F925F926F927F928F929F92AF928C
:100FD000BF92CF92DF92EF92FF92CF93DF93EC011B
:100FE000F62E6A81888199819FDBFF2069F064EF8A
:100FF000888199819FDB61E2888199819BDB68EC24
:1010000070E080E090E038D36AEF8881998192DBCC
:1010100088819981B6DB43E06A8188819981B3DB5D
:10102000CE0145DF4B015C014E805F80712C612C4D
:1010300024E095958795779567952A95D1F764195A
:101040007509860997099B01AC0156D43CE095953A
:101050008795779567953A95D1F72A853B85032E35
:10106000000C440B550B48D46B017C0143E0B59454
:10107000A794979487944A95D1F7440C551C661C05
:10108000771CC501B401641975098609970928857B
:101090003985032E000C440B550B2ED4EBE09595AF
:1010A000879577956795EA95D1F7FEE0F594E794F3
:1010B000D794C794FA95D1F76C0D7D1D8E1D9F1D99
:1010C0006EA77FA788AB99AB25E030E040E050E009
:1010D00013D460587F4F8F4F9F4F672F782F892FE2
:1010E000992787FD9A95DF91CF91FF90EF90DF9040
:1010F000CF90BF90AF909F908F907F906F905F90B8
:101100004F900895EF92FF920F931F93CF93DF9329
:10111000EC014AE16A818881998135DBCE01B4DE38
:101120009F838E83CE01B0DE99878887CE01ACDEA7
:101130009B878A878E01025F1F4F7E0180E2E80E47
:10114000F11CCE01A1DEF801819391938F01EE167F
:10115000FF06B9F7888199812BDB8881998128DB8B
:1011600099279BA38AA36A8188819981DDDA61EE40
:1011700088819981DFDA8881998103DB47E06A8180
:101180008881998100DBCE017FDE9DA38CA38881BD
:1011900099810EDB99279FA38EA38881998108DB13
:1011A0008C018881998104DB7C0184E0000F111F90
:1011B0008A95E1F7007F1F70C7018F709927082B70
:1011C000192B19A708A788819981F2DA24E0880FE2
:1011D000991F2A95E1F7E2943FE0E3228E0D911DDD
:1011E0009BA78AA788819981E3DA082E000C990BC6
:1011F0009DA78CA760E0CE01DF91CF911F910F9149
:10120000FF90EF90DECECF93DF93EC01798368837C
:101210004A83222369F0CB0186DA62E070E080E045
:1012200090E02AD2CE0191DECE01DF91CF916ACF3C
:10123000DF91CF910895CF93DF93EC01888199815D
:1012400072DA62E070E080E090E016D2CE017DDEDE
:10125000CE01DF91CF9156CF4F925F926F927F92E6
:101260008F929F92AF92BF92CF92DF92EF92FF92B6
:10127000CF93DF9300D000D000D0CDB7DEB79E83F0
:101280008D836623D9F0FC016281808191814CDAE3
:1012900064EFED81FE81808191814CDA65E2ED8120
:1012A000FE818081918146DAED81FE81808191818C
:1012B00068DA68EC70E080E090E0DED1ED81FE81DC
:1012C00062818081918130DA67EFED81FE818081DA
:1012D000918130DAED81FE818081918152DA43E0A3
:1012E000ED81FE816281808191814DDA8D819E81C7
:1012F000DEDD69837A838B839C83ED81FE81C6A4C6
:10130000D7A4E0A8F1A8F594E794D794C794FAEF8E
:10131000DF1AE108F108C701B601A2E095958795AB
:1013200077956795AA95D1F79B01AC01E5D22B0182
:101330003C01ED81FE8162897389072E000C880BC8
:10134000990BA3019201BDE05595479537952795D7
:10135000BA95D1F7D1D24B015C0183E0B594A79443
:10136000979487948A95D1F7ED81FE816089718980
:10137000072E000C880B990BA7019601BDD29595FD
:10138000879577956795680D791D8A1D9B1D32E1BC
:1013900095958795779567953A95D1F770588F4FC2
:1013A0009F4FED81FE812685378550E040E0A4D235
:1013B0004B015C014FE0B594A794979487944A95AC
:1013C000D1F760E070E0CB0181149104A104B10475
:1013D00009F4B6C0C301B2012BE0959587957795C6
:1013E00067952A95D1F7ED81FE81208D318D032EF1
:1013F000000C440B550B80D22B013C01ED81FE818A
:1014000066897789072E000C880B990BA701960136
:1014100073D2660F771F881F991F460E571E681ECE
:10142000791E42E075946794579447944A95D1F792
:10143000ED81FE8184899589092E000CAA0BBB0BD6
:1014400077276627640D751D861D971DECE0959521
:10145000879577956795EA95D1F729813A814B81F0
:101460005C81620F731F841F951F2BEC33EF4FEFCE
:101470005FEF42D2805B9C4397FD77C0660F771F7A
:10148000881F991FA501940150D249015A01C50135
:10149000B40123E096958795779567952A95D1F7BE
:1014A0009B01AC0129D23DE096958795779567958C
:1014B0003A95D1F7ED81FE81268D378D032E000CF4
:1014C000440B550B19D26B017C014CE0F594E79469
:1014D000D794C7944A95D1F7C501B40152E09695C7
:1014E0008795779567955A95D1F7ED81FE81248D83
:1014F000358D032E000C440B550BFED1EDE0959578
:10150000879577956795EA95D1F76C0D7D1D8E1DB2
:101510009F1DED81FE81C28CD38C0D2C000CEE083A
:10152000FF086C0D7D1D8E1D9F1DF4E09595879520
:1015300077956795FA95D1F7680D791D8A1D9B1DE2
:1015400026960FB6F894DEBF0FBECDBFDF91CF91C8
:10155000FF90EF90DF90CF90BF90AF909F908F90D3
:101560007F906F905F904F900895A5019401DDD119
:1015700049015A01880C991CAA1CBB1C88CF1F92D8
:101580000F920FB60F9211242F933F938F939F9337
:10159000AF93BF938091010190910201A09103014B
:1015A000B09104013091000126E0230F2D3768F13E
:1015B00029E8230F0396A11DB11D209300018093FC
:1015C000010190930201A0930301B0930401809163
:1015D000050190910601A0910701B09108010196C3
:1015E000A11DB11D8093050190930601A0930701F1
:1015F000B0930801BF91AF919F918F913F912F912F
:101600000F900FBE0F901F9018950296A11DB11D4F
:10161000D4CF2FB7F89460910101709102018091AD
:101620000301909104012FBF08953FB7F894809172
:10163000050190910601A0910701B091080122B720
:1016400008B601FE05C02F3F19F00196A11DB11D7E
:101650003FBFBA2FA92F982F8827BC01CD01620F59
:10166000711D811D911D43E0660F771F881F991F13
:101670004A95D1F708950895CF92DF92EF92FF92A5
:10168000CF93DF936B017C01D0DFEB01C114D10458
:10169000E104F10461F0EFDFC8DF6C1B7D0B683EF5
:1016A0007340A0F3C114D104E104F10439F4DF91D3
:1016B000CF91FF90EF90DF90CF90089581E0C81A0E
:1016C000D108E108F108C851DC4FE6CF83E08ABDBC
:1016D00082E083BF789489B7826089BF80E48CBD43
:1016E0008FEF8DBD84EC80BF83E886B90895CF92DB
:1016F000DF92EF92FF920F931F93CF93DF936C01D2
:10170000EB017B01E40EF51E10E000E0CE15DF05D5
:1017100061F06991D601ED91FC910190F081E02D8D
:10172000C6010995080F191FF1CFC801DF91CF91AC
:101730001F910F91FF90EF90DF90CF900895FB01E4
:1017400001900020E9F73197AF01461B570BDC01F0
:10175000ED91FC910280F381E02D0994F0CFDC0142
:10176000ED91FC910190F081E02D09948F929F9270
:10177000AF92BF92CF92DF92EF92FF920F931F939F
:10178000CF93DF93CDB7DEB7A1970FB6F894DEBF46
:101790000FBECDBF6C01142FE52FCB01022F19A274
:1017A000223008F40AE07E0121E2E20EF11C802ED4
:1017B000912CB12CA12C612F7E2FA5019401B5D0C5
:1017C000802F622F7FD0181B1A300CF5105DF701A7
:1017D00012937F01122FE32FCA01232B242B252BD9
:1017E00051F7B701C601ABDFA1960FB6F894DEBF83
:1017F0000FBECDBFDF91CF911F910F91FF90EF9062
:10180000DF90CF90BF90AF909F908F900895195C1C
:10181000DECFCF92DF92EF92FF920F931F93CF9381
:10182000DF93EC016A017B012115310579F4E88130
:10183000F9810190F081E02D642FDF91CF911F910C
:101840000F91FF90EF90DF90CF9009942A303105EF
:10185000F9F410E000E0F7FE0BC06DE280DF8C01D0
:10186000F094E094D094C094C11CD11CE11CF11CF4
:101870002AE0B701A601CE0179DF800F911FDF9129
:10188000CF911F910F91FF90EF90DF90CF9008952F
:10189000DF91CF911F910F91FF90EF90DF90CF904C
:1018A00065CF2115310541F4DC01ED91FC910190EA
:1018B000F081E02D642F099459CF7BD007DF90D6BB
:1018C000F8D6FECF002480FD060E660F11F0869537
:1018D000D1F7802D08950024552704C0080E591F04
:1018E000880F991F009729F076956795B8F37105D1
:1018F000B9F7802D952F0895EE27FF27AA27BB273C
:1019000008C0A20FB31FE41FF51F220F331F441F8F
:10191000551F969587957795679598F37040A9F729
:10192000009799F7BD01CF010895A1E21A2EAA1BD5
:10193000BB1BFD010DC0AA1FBB1FEE1FFF1FA2177F
:10194000B307E407F50720F0A21BB30BE40BF50B7C
:10195000661F771F881F991F1A9469F76095709505
:10196000809590959B01AC01BD01CF010895052E96
:1019700097FB16F400940FD057FD05D0D6DF07FC77
:1019800002D046F408C050954095309521953F4FC0
:101990004F4F5F4F089590958095709561957F4F5B
:1019A0008F4F9F4F0895EE0FFF1F0590F491E02D8C
:0E19B000099481E090E0F89400C0F894FFCF15
:1019BE0040B004802E00000000003902770B1E009C
:1019CE0010042C3A0000000000000000005D0C77AF
:0219DE000B00FC
:00000001FF
