:1000000063C287C286C285C284C27BCA82C281C2E1
:1000100080C27FC27EC27DC2FCC37BC27AC20000A6
:1000200000000000000000000000000000000000D0
:1000300000000000000000000000000000000000C0
:1000400000000000000000E00000000000000000D0
:10005000000000FF0000000000000000000000069B
:100060000400000000000000000000E000E00000CC
:10007000000000000000000300030000000000007A
:10008000000000000000000000000000000000E090
:10009000000000E00000004042F24F4242E25E43B6
:1000A00002000000070000000601000000000080C0
:1000B00040202020F8202040E000008304040808AD
:1000C000FF10101021C00007020404041F040404E0
:1000D000020100E02020E0800080402000000007B6
:1000E0000C08E655CC331030E0000000040300009B
:1000F0000106040407000000C0E02020206040004A
:10010000000000E013171C1020C0C0E01000000326
:1001100004040404040303060404000000000000B7
:10012000E0000000000000000000000003000000EC
:1001300000000000000000000000000000000000BF
:10014000000000C03008000000000000000000FFB8
:1001500000000000000000000000000F1020000060
:100160000000000000001860800000000000000097
:1001700000000000FF000000000000000000201848
:100180000700000000000000408080E08080400008
:10019000000000000202010701020200000000004E
:1001A000000000000000000000000000000000004F
:1001B0000000000000000000101010FF10101010D0
:1001C000000000000000000100000000000000002E
:1001D000000000000000000000000000000000001F
:1001E00000000000000000000000241E00000000CD
:1001F00000000000000000000000000000000000FF
:10020000101010101010101000000000000000006E
:1002100000000000000000000000000000000000DE
:1002200000000000000000000000000000000000CE
:1002300000000406000000000000000000000000B4
:10024000000000C0200000000080403008060100CF
:100250000000000006010000000000000000000097
:1002600080402020202040800000007E810000008F
:10027000000000817E000000010204040404020169
:1002800000000000008040E00000000000000000CE
:10029000000000FF00000000000000000000040754
:1002A00004040000000000404020202020202040C6
:1002B0008000000080402020101008040300000788
:1002C0000404040404040404070000404020202027
:1002D000202020C0000000000000080808080816C0
:1002E000E10000020204040404040402010000000E
:1002F0000000F00000000000000080E0988780808F
:100300008080FE80800000000000000000000700E8
:10031000000000E020202020202020200000000FEE
:100320000804040404040818E0000008080808048D
:100330000404020100000000008040202010100092
:10034000000000FC0304040404040408F00000009E
:100350000304040404040402010000E0202020201F
:100360002020A06000000000000000E0180601004E
:100370000000000000000601000000000000000076
:10038000C0202020202020C0000000C0231C18080E
:1003900008181C23C0000001020404040404040221
:1003A0000100008040202020202040800000000F1D
:1003B00010202020202020C03F0000000808080452
:1003C0000402010000000000000000000000000026
:1003D0000000000000000006020000000000000015
:1003E0000000000604000000000000000000000003
:1003F00000000000000000000000000602000000F5
:1004000000000000000020160C00000000000000AA
:100410000000000000000000000000006060900884
:1004200008040402000000000000000101020204B0
:1004300000000000000000000000000000000000BC
:10044000444444444444444400000000000000008C
:10045000000000000000000000000000000000009C
:100460000000000002040408089060600000000022
:100470000402020101000000000000C02020202032
:100480002020408000000001000000E01008080764
:100490000000000000000406000000000000000052
:1004A0008040202020206080000000FF00FC02022D
:1004B0000206FE0007F800070833444444422714AC
:1004C0000700C8A18D14180411241FBECFE5D2E087
:1004D000DEBFCDBF10E0A0E6B0E0ECEAFAE102C07A
:1004E00005900D92A438B107D9F721E0A4E8B0E057
:1004F00001C01D92A130B207E1F712E0C4E6D2E0DC
:1005000003C02197FE0128DAC336D107D1F7AFD94E
:10051000CBCA76CD82ED90E0CFC1682F82ED90E01E
:10052000A4D121E0892B09F420E0822F08956CE307
:1005300082ED90E094D181E0089582ED90E08ED13B
:10054000F6DFE8DF882331F06AE070E080E090E0D9
:1005500055D8F6CF0895BF92CF92DF92EF92FF92D7
:100560000F931F93CF93DF9304E810E0F8014081CD
:1005700060E08EEC90E03CD368E670E08EEC90E0BA
:10058000AFD868E070E080E090E059D9D62F62E003
:1005900070E080E090E053D9C62FB72E462F6D2F24
:1005A0008EEC90E025D36091880070918900809155
:1005B0008A0090918B0024E6C22ED12CE12CF12CE4
:1005C000A70196018BD9BA01A9012AE030E08EEC8F
:1005D00090E029D963E770E08EEC90E081D86091DB
:1005E00088007091890080918A0090918B00A7010A
:1005F000960174D9AB01BC012AE030E08EEC90E0AA
:1006000012D98EEC90E0F0D3F801408160E08EECDE
:1006100090E0EED268E670E08EEC90E061D84C2F6E
:100620006D2F8EEC90E0E4D260918C0070918D0083
:1006300080918E0090918F00A701960171D9BA0127
:10064000A9012AE030E08EEC90E0A5D863E770E0E5
:100650008EEC90E045D860918C0070918D00809177
:100660008E0090918F00A70196015AD9AB01BC0171
:100670002AE030E08EEC90E08ED8C0938400B092F7
:1006800085008EEC90E0B0D38EEC90E0B4D38EEC8D
:1006900090E0B1D364E670E080E090E0DF91CF912C
:1006A0001F910F91FF90EF90DF90CF90BF90A6C762
:1006B00072D7609398007093990080939A009093FA
:1006C0009B00809186009091870061E0892B81F4E6
:1006D0008CE990E0E3D360E08CE990E07FD5609313
:1006E00088007093890080938A0090938B0060E06B
:1006F0008CE990E028D460938C0070938D008093F7
:100700008E0090938F0080918600909187000196D3
:100710008770992790938700809386001CDF64EF91
:1007200071E080E090E06AC70F931F9334D7609325
:100730009400709395008093960090939700609337
:10074000900070939100809392009093930082EDBB
:1007500090E084D002EC14E024E040E460E88EEC09
:1007600090E025D264EF71E080E090E047D765E744
:1007700070E08EEC90E037D266E48EEC90E042D3ED
:100780008EEC90E041D38EEC90E02CD38EEC90E098
:100790002BD38EEC90E026D38EEC90E025D38CE921
:1007A00090E00BD58CE990E079D360E08CE990E0A3
:1007B00015D5609388007093890080938A00909388
:1007C0008B0060E08CE990E0BED360938C00709366
:1007D0008D0080938E0090938F00BDDE3798A89592
:1007E00088E199E20FB6F894A89581BD0FBE91BD3E
:1007F00081B5806481BD789485B7877E806185BF2F
:100800001F910F91089554DF85B7806285BF889549
:1008100008951F920F920FB60F9211248F9381B5F6
:10082000806481BD8F910F900FBE0F901F9018951F
:100830000F931F930AE812E02DE832E047E952E0F7
:100840006DE972E08EEC90E069D120E046E762ED60
:1008500070E08CE990E01F910F9197C44FC0109207
:10086000D500660F6093D6000895E091D500E13180
:1008700050F4EF5FE093D500F0E0EA52FF4F608361
:1008800081E090E0089590E080E00895CF93C62F36
:100890006091D5006F5F86ED90E0DBD01092D500BF
:1008A000882329F0CC2329F0D7D0811102C0CF9121
:1008B00030C080E0CF91089561E0E8CF1092D4007D
:1008C0004093D300660F61606093D60061E0640FCF
:1008D00086ED90E0BED0882319F0BED0811101C012
:1008E00018C080E00895E091D400EF5FE093D40059
:1008F000F0E0EA52FF4F808190E00895C09AC29ADA
:10090000BA9AB89A8FEF8FB98AE28DB980EF8EB913
:1009100008958091E80008958EB98BE200C000C070
:1009200000008DB9B29BFECF00C000C08DB9769B90
:10093000F5CF00C000C000008FB19FEF9FB9B89AFB
:100940000895C29AC29BFECF00C000C00000C098AC
:1009500000C000C0C298C09A779905C083E0809318
:10096000E80080E0089581E00895AF92BF92CF92B1
:10097000DF92EF92FF920F931F93CF93DF938C013F
:10098000E62E8091E80081608093E800F801908174
:1009900090FD03C082608093E800D3DF882311F1CB
:1009A000FE2CE801BB24BA94AA24A3946E01FFEFA5
:1009B000CF1ADF0A8091E8008370D9F1C29888814C
:1009C0008FB980EFA9DFB8988EEFA6DF9091E8008D
:1009D00080FF17C0892F817090FF0FC081E0809346
:1009E000E80080E0DF91CF911F910F91FF90EF9091
:1009F000DF90CF90BF90AF90089592E09093E80081
:100A0000F1CF892F8570843059F4F801808181609D
:100A10008083A092E80095DF811118C09AE0EECFA4
:100A20009E7F9093E800E601FA94F110BFCF81E039
:100A3000D9CFB89880EF70DF8883F1E0FF1204C04F
:100A4000BFB88EEF69DFEFCF1FB8FBCFFE2CE801F8
:100A5000EBCF1092E80089CFC098C29AB29BFECF2C
:100A600000C000C0C09A00C000C000009EB1892F25
:100A7000807295FD04C094E09093E800089581E0B1
:100A80000895E091EB00F091EC000994E091E90009
:100A9000F091EA000994E091ED00F091EE000995E3
:100AA00080E4EFCFCF93C82F8091F1008C27E9DF4E
:100AB000811107C0EBDFEFDF8091F1008C27CF9130
:100AC000E0CFCF910895E091ED00F091EE0009950F
:100AD00080E0D7CFCF93C82FF6DF8C2FD2DFCF9116
:100AE000D5CFCF93DF93D82FC62FEDDF8D2FC9DF62
:100AF0008C2FC7DFDF91CF91C9CF1F93CF93DF93A7
:100B0000182FD62FC42FDFDF812FBBDF8D2FB9DF4A
:100B10008C2FB7DFDF91CF911F91B8CF0F931F9329
:100B2000DC0113961C921E921297EFE7F0E0ED9312
:100B3000FC937093F0006093EF005093EE004093AD
:100B4000ED003093EC002093EB001093EA0000934B
:100B5000E9001F910F910895CF92DF92EF92FF92DB
:100B60001F93CF93DF93E62E6A01E091EF00F0919F
:100B7000F0000995A8DFF12CD0E0C0E0CE15DF052C
:100B800071F0F601EC0FFD1F1491812F7ADF8111B6
:100B900004C07CDF98DF812F74DF2196EFCFDF91D7
:100BA000CF911F91FF90EF90DF90CF906FCF0F9379
:100BB0001F93E42FA801A0E8B0E0A61BB109B595EA
:100BC000A795A093F7001092F60060936700F0E0FD
:100BD00063E0F595E7956A95E1F7E0936600622F8B
:100BE0001F910F91B9CF7093F5006093F4000895B1
:100BF000CF93DF93D62FC42F6091F7006D0F462F50
:100C00004F7062956F7060618091F6008C0F8770F5
:100C100090916500892B71DFD093F300C093F200AF
:100C2000DF91CF910895FC012091F200260F2093CF
:100C3000F20090916600A92FA61BBB0B2A171B067A
:100C400021F01CF0961B9093F2004091F20060E0BE
:100C5000CF01CECF8F929F92BF92CF92DF92EF9231
:100C6000FF920F931F93CF93DF93E091F400F091E5
:100C7000F500309749F06D3039F0D62F8C01C381E3
:100C80006A3081F46C2FCFDF81E090E0DF91CF916B
:100C90001F910F91FF90EF90DF90CF90BF909F90AA
:100CA0008F900895B2802091F3008091670090E0CA
:100CB000CB2CD12C8C199D092817190621F01CF07A
:100CC0006C2FC801B0DFE091F400F091F5002481B1
:100CD0008C2F90E0B601D8D5BC014D2F421B550B8F
:100CE000CA01D2D57C01DC2FD6DEC701282F2E19F0
:100CF0002B1588F44C015FEF851A950AE091F400FA
:100D0000F091F5000190F081E02DE80FF91F84913A
:100D1000C9DEC401EBCFEC0CFD1CB8DE6091F30022
:100D2000C13031F46B0D6093F300D150E9F6ACCFD4
:100D30004091F2004F5FD23018F0C80159DFF5CF73
:100D40004C1B6B0DFACF1F93CF93DF93D62F142F2D
:100D5000C0E0C11721F08D2FA5DECF5FFACFDF9164
:100D6000CF911F9108950F931F93CF93DF93442347
:100D700091F0C42FD62F8C018091F300840F8093C3
:100D8000F30089DE4C2F6D2FC801DDDFDF91CF919D
:100D90001F910F917BCEDF91CF911F910F910895FD
:100DA000409167002091F300421BDDCF0F931F930A
:100DB000CF93DF938C01D62FC0E080916600C817D7
:100DC00048F44C2F60E0C80113DF6D2FC801E8DF45
:100DD000CF5FF3CF40E060E0C801DF91CF911F917A
:100DE0000F9106CF60E0E2CF8091650094E0892703
:100DF0008093650008958091640090E28927809334
:100E0000640068CE81E86DCE8FEA64CE1F93CF93E5
:100E1000DF93EC018881998166DD182F88819981A3
:100E200062DD20E0382FC901812BDF91CF911F9126
:100E300008950F931F93CF93DF93EC0188819981DD
:100E400052DD182F888199814EDD082F8881998184
:100E50004ADD412F50E070E060E09CE0440F551FF8
:100E6000661F771F9A95D1F710E030E020E0E4E0AC
:100E7000000F111F221F331FEA95D1F7402B512B72
:100E8000622B732B82958F708A019B01082BC901FD
:100E9000B801DF91CF911F910F910895CF93DF9308
:100EA000EC016A8188819981DADC64EF888199811B
:100EB000DCDC65E288819981D8DC88819981FCDC61
:100EC00068EC70E080E090E0DF91CF9197C3CF9322
:100ED000DF93EC016A8188819981C1DC60ED8881B2
:100EE0009981C3DC88819981E7DC41E06A8188814E
:100EF0009981E4DC88819981F6DC8B836A81888121
:100F00009981ADDC8B81803641F462EF88819981D3
:100F1000ACDC61E088819981A8DC64EF88819981EB
:100F2000A4DC65E288819981A0DC68E888819981E8
:100F30009CDC88819981C0DC68EC70E080E090E006
:100F4000DF91CF915BC34F925F926F927F928F92AE
:100F50009F92AF92BF92CF92DF92EF92FF92CF9388
:100F6000DF93EC01F62E6A818881998178DCFF207D
:100F700069F064EF8881998178DC61E288819981E8
:100F800074DC68EC70E080E090E038D36AEF888130
:100F900099816BDC888199818FDC43E06A8188814B
:100FA00099818CDCCE0145DF4B015C014E805F8076
:100FB000712C612C24E095958795779567952A95F6
:100FC000D1F764197509860997099B01AC016DD4A5
:100FD0003CE095958795779567953A95D1F72A8561
:100FE0003B85032E000C440B550B5FD46B017C0139
:100FF00043E0B594A794979487944A95D1F7440C0D
:10100000551C661C771CC501B40164197509860955
:10101000970928853985032E000C440B550B45D4C0
:10102000EBE09595879577956795EA95D1F7FEE082
:10103000F594E794D794C794FA95D1F76C0D7D1D7C
:101040008E1D9F1D6EA77FA788AB99AB25E030E072
:1010500040E050E02AD460587F4F8F4F9F4F672F5A
:10106000782F892F992787FD9A95DF91CF91FF904F
:10107000EF90DF90CF90BF90AF909F908F907F9038
:101080006F905F904F900895EF92FF920F931F9390
:10109000CF93DF93EC014AE16A81888199810EDC6C
:1010A000CE01B4DE9F838E83CE01B0DE9987888720
:1010B000CE01ACDE9B878A878E01025F1F4F7E01C7
:1010C00080E2E80EF11CCE01A1DEF801819391933C
:1010D0008F01EE16FF06B9F78881998104DC8881BB
:1010E000998101DC99279BA38AA36A8188819981D0
:1010F000B6DB61EE88819981B8DB88819981DCDB80
:1011000047E06A8188819981D9DBCE017FDE9DA38A
:101110008CA388819981E7DB99279FA38EA388817F
:101120009981E1DB8C0188819981DDDB7C0184E0A0
:10113000000F111F8A95E1F7007F1F70C7018F70A4
:101140009927082B192B19A708A788819981CBDB30
:1011500024E0880F991F2A95E1F7E2943FE0E3220B
:101160008E0D911D9BA78AA788819981BCDB082ED3
:10117000000C990B9DA78CA760E0CE01DF91CF9169
:101180001F910F91FF90EF90DECECF93DF93EC0194
:10119000798368834A83222369F0CB015FDB62E0B5
:1011A00070E080E090E02AD2CE0191DECE01DF91A6
:1011B000CF916ACFDF91CF910895CF93DF93EC0168
:1011C000888199814BDB62E070E080E090E016D28C
:1011D000CE017DDECE01DF91CF9156CF4F925F924F
:1011E0006F927F928F929F92AF92BF92CF92DF9237
:1011F000EF92FF92CF93DF9300D000D000D0CDB715
:10120000DEB79E838D836623D9F0FC0162818081E5
:10121000918125DB64EFED81FE818081918125DB69
:1012200065E2ED81FE81808191811FDBED81FE8190
:101230008081918141DB68EC70E080E090E0DED15C
:10124000ED81FE8162818081918109DB67EFED8113
:10125000FE818081918109DBED81FE818081918118
:101260002BDB43E0ED81FE8162818081918126DB71
:101270008D819E81DEDD69837A838B839C83ED8102
:10128000FE81C6A4D7A4E0A8F1A8F594E794D7946A
:10129000C794FAEFDF1AE108F108C701B601A2E02E
:1012A0009595879577956795AA95D1F79B01AC01A0
:1012B000FCD22B013C01ED81FE8162897389072EEE
:1012C000000C880B990BA3019201BDE05595479541
:1012D00037952795BA95D1F7E8D24B015C0183E0A9
:1012E000B594A794979487948A95D1F7ED81FE8160
:1012F00060897189072E000C880B990BA701960154
:10130000D4D29595879577956795680D791D8A1D37
:101310009B1D32E195958795779567953A95D1F71D
:1013200070588F4F9F4FED81FE812685378550E0A5
:1013300040E0BBD24B015C014FE0B594A794979479
:1013400087944A95D1F760E070E0CB018114910455
:10135000A104B10409F4B6C0C301B2012BE0959514
:101360008795779567952A95D1F7ED81FE81208D38
:10137000318D032E000C440B550B97D22B013C01F1
:10138000ED81FE8166897789072E000C880B990B09
:10139000A70196018AD2660F771F881F991F460EF4
:1013A000571E681E791E42E07594679457944794BF
:1013B0004A95D1F7ED81FE8184899589092E000C2B
:1013C000AA0BBB0B77276627640D751D861D971D1D
:1013D000ECE09595879577956795EA95D1F7298102
:1013E0003A814B815C81620F731F841F951F2BEC28
:1013F00033EF4FEF5FEF59D2805B9C4397FD77C08F
:10140000660F771F881F991FA501940167D24901B4
:101410005A01C501B40123E09695879577956795A4
:101420002A95D1F79B01AC0140D23DE09695879576
:10143000779567953A95D1F7ED81FE81268D378DA9
:10144000032E000C440B550B30D26B017C014CE099
:10145000F594E794D794C7944A95D1F7C501B401A0
:1014600052E096958795779567955A95D1F7ED81D6
:10147000FE81248D358D032E000C440B550B15D2A7
:10148000EDE09595879577956795EA95D1F76C0D81
:101490007D1D8E1D9F1DED81FE81C28CD38C0D2C78
:1014A000000CEE08FF086C0D7D1D8E1D9F1DF4E0E5
:1014B0009595879577956795FA95D1F7680D791D7C
:1014C0008A1D9B1D26960FB6F894DEBF0FBECDBFBA
:1014D000DF91CF91FF90EF90DF90CF90BF90AF90D2
:1014E0009F908F907F906F905F904F900895A5018F
:1014F0009401F4D149015A01880C991CAA1CBB1C07
:1015000088CF1F920F920FB60F9211242F933F9303
:101510008F939F93AF93BF938091F9009091FA00BE
:10152000A091FB00B091FC003091F80026E0230F61
:101530002D3768F129E8230F0396A11DB11D2093D3
:10154000F8008093F9009093FA00A093FB00B09309
:10155000FC008091FD009091FE00A091FF00B091F1
:1015600000010196A11DB11D8093FD009093FE0026
:10157000A093FF00B0930001BF91AF919F918F9115
:101580003F912F910F900FBE0F901F9018950296CC
:10159000A11DB11DD4CF2FB7F8946091F9007091BF
:1015A000FA008091FB009091FC002FBF08953FB797
:1015B000F8948091FD009091FE00A091FF00B09101
:1015C000000122B708B601FE05C02F3F19F00196B1
:1015D000A11DB11D3FBFBA2FA92F982F8827BC018D
:1015E000CD01620F711D811D911D43E0660F771FB4
:1015F000881F991F4A95D1F708950895CF92DF92D9
:10160000EF92FF92CF93DF936B017C01D0DFEB0170
:10161000C114D104E104F10461F0EFDFC8DF6C1BF9
:101620007D0B683E7340A0F3C114D104E104F104C2
:1016300039F4DF91CF91FF90EF90DF90CF90089534
:1016400081E0C81AD108E108F108C851DC4FE6CFA3
:1016500083E08ABD82E083BF789489B7826089BFC6
:1016600080E48CBD8FEF8DBD84EC80BF83E886B9AC
:101670000895CF92DF92EF92FF920F931F93CF9333
:10168000DF936C01EB017B01E40EF51E10E000E03E
:10169000CE15DF0561F06991D601ED91FC910190C5
:1016A000F081E02DC6010995080F191FF1CFC8017F
:1016B000DF91CF911F910F91FF90EF90DF90CF902E
:1016C0000895FB0101900020E9F73197AF01461B17
:1016D000570BDC01ED91FC910280F381E02D099420
:1016E000F0CFDC01ED91FC910190F081E02D0994A7
:1016F0008F929F92AF92BF92CF92DF92EF92FF9222
:101700000F931F93CF93DF93CDB7DEB7A1970FB69B
:10171000F894DEBF0FBECDBF6C01142FE52FCB01B7
:10172000022F19A2223008F40AE07E0121E2E20E23
:10173000F11C802E912CB12CA12C612F7E2FA501A4
:101740009401CCD0802F622F96D0181B1A300CF544
:10175000105DF70112937F01122FE32FCA01232B93
:10176000242B252B51F7B701C601ABDFA1960FB68D
:10177000F894DEBF0FBECDBFDF91CF911F910F91C7
:10178000FF90EF90DF90CF90BF90AF909F908F90A1
:101790000895195CDECFCF92DF92EF92FF920F9304
:1017A0001F93CF93DF93EC016A017B012115310573
:1017B00079F4E881F9810190F081E02D642FDF91C7
:1017C000CF911F910F91FF90EF90DF90CF900994F0
:1017D0002A303105F9F410E000E0F7FE0BC06DE2AD
:1017E00080DF8C01F094E094D094C094C11CD11C93
:1017F000E11CF11C2AE0B701A601CE0179DF800FC0
:10180000911FDF91CF911F910F91FF90EF90DF908B
:10181000CF900895DF91CF911F910F91FF90EF909E
:10182000DF90CF9065CF2115310541F4DC01ED91BA
:10183000FC910190F081E02D642F099459CFCF9253
:10184000DF92EF92FF926B017C01C114D104E1049D
:10185000F10431F0D2D0A701960162D06B017C0176
:10186000C701B601FF90EF90DF90CF900895F0DEB2
:101870005BD7C9D7FECF002480FD060E660F11F09E
:101880008695D1F7802D08950024552704C0080EB1
:10189000591F880F991F009729F076956795B8F31F
:1018A0007105B9F7802D952F0895EE27FF27AA27F8
:1018B000BB2708C0A20FB31FE41FF51F220F331F61
:1018C000441F551F969587957795679598F37040B7
:1018D000A9F7009799F7BD01CF010895A1E21A2E4B
:1018E000AA1BBB1BFD010DC0AA1FBB1FEE1FFF1FC4
:1018F000A217B307E407F50720F0A21BB30BE40B14
:10190000F50B661F771F881F991F1A9469F760955A
:101910007095809590959B01AC01BD01CF01089514
:10192000052E97FB16F400940FD057FD05D0D6DF97
:1019300007FC02D046F408C050954095309521959B
:101940003F4F4F4F5F4F08959095809570956195EB
:101950007F4F8F4F9F4F0895EE0FFF1F0590F4911B
:10196000E02D09948F929F92AF92BF92CF92DF9217
:10197000EF92FF92CF93DF93EC01688179818A81A6
:101980009B81611571058105910521F464E279ED72
:101990008BE597E02DE133EF41E050E0C1DF4901F5
:1019A0005A0127EA31E440E050E07FDF6B017C011F
:1019B0002CEE34EF4FEF5FEFC501B40176DFC60EBA
:1019C000D71EE81EF91EF7FE06C081E0C81AD1082E
:1019D000E10880E8F80AC882D982EA82FB82C7015E
:1019E000B6019F77DF91CF91FF90EF90DF90CF907E
:1019F000BF90AF909F908F9008958F929F92AF92DB
:101A0000BF92CF92DF92EF92FF926091600070914F
:101A100061008091620090916300611571058105FC
:101A2000910521F464E279ED8BE597E02DE133EF48
:101A300041E050E075DF49015A0127EA31E440E016
:101A400050E033DF6B017C012CEE34EF4FEF5FEFA2
:101A5000C501B4012ADFC60ED71EE81EF91EF7FE27
:101A600006C081E0C81AD108E10880E8F80AC092EF
:101A70006000D0926100E0926200F0926300C701C2
:101A8000B6019F77FF90EF90DF90CF90BF90AF901F
:101A90009F908F9008956093600070936100809391
:0C1AA0006200909363000895F894FFCF5B
:101AAC000100000040B004802020202020202020B5
:101ABC002020002E001E000C032040000000002AF5
:041ACC0006390B00CC
:00000001FF
